{
	"Secim.sol": {
		"SecimSistemi": {
			"abi": [
				{
					"inputs": [
						{
							"internalType": "string",
							"name": "_isim",
							"type": "string"
						}
					],
					"name": "adayEkle",
					"outputs": [],
					"stateMutability": "nonpayable",
					"type": "function"
				},
				{
					"inputs": [],
					"name": "adaySayisi",
					"outputs": [
						{
							"internalType": "uint256",
							"name": "",
							"type": "uint256"
						}
					],
					"stateMutability": "view",
					"type": "function"
				},
				{
					"inputs": [
						{
							"internalType": "uint256",
							"name": "",
							"type": "uint256"
						}
					],
					"name": "adaylar",
					"outputs": [
						{
							"internalType": "uint256",
							"name": "id",
							"type": "uint256"
						},
						{
							"internalType": "string",
							"name": "isim",
							"type": "string"
						},
						{
							"internalType": "uint256",
							"name": "oySayisi",
							"type": "uint256"
						}
					],
					"stateMutability": "view",
					"type": "function"
				},
				{
					"inputs": [
						{
							"internalType": "string",
							"name": "",
							"type": "string"
						}
					],
					"name": "oyKullandiMi",
					"outputs": [
						{
							"internalType": "bool",
							"name": "",
							"type": "bool"
						}
					],
					"stateMutability": "view",
					"type": "function"
				},
				{
					"inputs": [
						{
							"internalType": "string",
							"name": "_tcNo",
							"type": "string"
						},
						{
							"internalType": "uint256",
							"name": "_adayId",
							"type": "uint256"
						}
					],
					"name": "oyVer",
					"outputs": [],
					"stateMutability": "nonpayable",
					"type": "function"
				}
			],
			"devdoc": {
				"kind": "dev",
				"methods": {},
				"version": 1
			},
			"evm": {
				"assembly": "    /* \"Secim.sol\":57:779  contract SecimSistemi {... */\n  mstore(0x40, 0x80)\n  callvalue\n  dup1\n  iszero\n  tag_1\n  jumpi\n  0x00\n  dup1\n  revert\ntag_1:\n  pop\n  dataSize(sub_0)\n  dup1\n  dataOffset(sub_0)\n  0x00\n  codecopy\n  0x00\n  return\nstop\n\nsub_0: assembly {\n        /* \"Secim.sol\":57:779  contract SecimSistemi {... */\n      mstore(0x40, 0x80)\n      callvalue\n      dup1\n      iszero\n      tag_1\n      jumpi\n      0x00\n      dup1\n      revert\n    tag_1:\n      pop\n      jumpi(tag_2, lt(calldatasize, 0x04))\n      shr(0xe0, calldataload(0x00))\n      dup1\n      0x34fcd125\n      eq\n      tag_3\n      jumpi\n      dup1\n      0x4947de91\n      eq\n      tag_4\n      jumpi\n      dup1\n      0x97b5f50c\n      eq\n      tag_5\n      jumpi\n      dup1\n      0x9fb8ab66\n      eq\n      tag_6\n      jumpi\n      dup1\n      0xeba785fb\n      eq\n      tag_7\n      jumpi\n    tag_2:\n      0x00\n      dup1\n      revert\n        /* \"Secim.sol\":147:183  mapping(uint => Aday) public adaylar */\n    tag_3:\n      tag_8\n      0x04\n      dup1\n      calldatasize\n      sub\n      dup2\n      add\n      swap1\n      tag_9\n      swap2\n      swap1\n      tag_10\n      jump\t// in\n    tag_9:\n      tag_11\n      jump\t// in\n    tag_8:\n      mload(0x40)\n      tag_12\n      swap4\n      swap3\n      swap2\n      swap1\n      tag_13\n      jump\t// in\n    tag_12:\n      mload(0x40)\n      dup1\n      swap2\n      sub\n      swap1\n      return\n        /* \"Secim.sol\":335:468  function adayEkle(string memory _isim) public {... */\n    tag_4:\n      tag_14\n      0x04\n      dup1\n      calldatasize\n      sub\n      dup2\n      add\n      swap1\n      tag_15\n      swap2\n      swap1\n      tag_16\n      jump\t// in\n    tag_15:\n      tag_17\n      jump\t// in\n    tag_14:\n      stop\n        /* \"Secim.sol\":515:777  function oyVer(string memory _tcNo, uint _adayId) public {... */\n    tag_5:\n      tag_18\n      0x04\n      dup1\n      calldatasize\n      sub\n      dup2\n      add\n      swap1\n      tag_19\n      swap2\n      swap1\n      tag_20\n      jump\t// in\n    tag_19:\n      tag_21\n      jump\t// in\n    tag_18:\n      stop\n        /* \"Secim.sol\":251:294  mapping(string => bool) public oyKullandiMi */\n    tag_6:\n      tag_22\n      0x04\n      dup1\n      calldatasize\n      sub\n      dup2\n      add\n      swap1\n      tag_23\n      swap2\n      swap1\n      tag_16\n      jump\t// in\n    tag_23:\n      tag_24\n      jump\t// in\n    tag_22:\n      mload(0x40)\n      tag_25\n      swap2\n      swap1\n      tag_26\n      jump\t// in\n    tag_25:\n      mload(0x40)\n      dup1\n      swap2\n      sub\n      swap1\n      return\n        /* \"Secim.sol\":306:328  uint public adaySayisi */\n    tag_7:\n      tag_27\n      tag_28\n      jump\t// in\n    tag_27:\n      mload(0x40)\n      tag_29\n      swap2\n      swap1\n      tag_30\n      jump\t// in\n    tag_29:\n      mload(0x40)\n      dup1\n      swap2\n      sub\n      swap1\n      return\n        /* \"Secim.sol\":147:183  mapping(uint => Aday) public adaylar */\n    tag_11:\n      mstore(0x20, 0x00)\n      dup1\n      0x00\n      mstore\n      keccak256(0x00, 0x40)\n      0x00\n      swap2\n      pop\n      swap1\n      pop\n      dup1\n      0x00\n      add\n      sload\n      swap1\n      dup1\n      0x01\n      add\n      dup1\n      sload\n      tag_31\n      swap1\n      tag_32\n      jump\t// in\n    tag_31:\n      dup1\n      0x1f\n      add\n      0x20\n      dup1\n      swap2\n      div\n      mul\n      0x20\n      add\n      mload(0x40)\n      swap1\n      dup2\n      add\n      0x40\n      mstore\n      dup1\n      swap3\n      swap2\n      swap1\n      dup2\n      dup2\n      mstore\n      0x20\n      add\n      dup3\n      dup1\n      sload\n      tag_33\n      swap1\n      tag_32\n      jump\t// in\n    tag_33:\n      dup1\n      iszero\n      tag_34\n      jumpi\n      dup1\n      0x1f\n      lt\n      tag_35\n      jumpi\n      0x0100\n      dup1\n      dup4\n      sload\n      div\n      mul\n      dup4\n      mstore\n      swap2\n      0x20\n      add\n      swap2\n      jump(tag_34)\n    tag_35:\n      dup3\n      add\n      swap2\n      swap1\n      0x00\n      mstore\n      keccak256(0x00, 0x20)\n      swap1\n    tag_36:\n      dup2\n      sload\n      dup2\n      mstore\n      swap1\n      0x01\n      add\n      swap1\n      0x20\n      add\n      dup1\n      dup4\n      gt\n      tag_36\n      jumpi\n      dup3\n      swap1\n      sub\n      0x1f\n      and\n      dup3\n      add\n      swap2\n    tag_34:\n      pop\n      pop\n      pop\n      pop\n      pop\n      swap1\n      dup1\n      0x02\n      add\n      sload\n      swap1\n      pop\n      dup4\n      jump\t// out\n        /* \"Secim.sol\":335:468  function adayEkle(string memory _isim) public {... */\n    tag_17:\n        /* \"Secim.sol\":391:401  adaySayisi */\n      0x02\n      0x00\n        /* \"Secim.sol\":391:403  adaySayisi++ */\n      dup2\n      sload\n      dup1\n      swap3\n      swap2\n      swap1\n      tag_38\n      swap1\n      tag_39\n      jump\t// in\n    tag_38:\n      swap2\n      swap1\n      pop\n      sstore\n      pop\n        /* \"Secim.sol\":435:461  Aday(adaySayisi, _isim, 0) */\n      mload(0x40)\n      dup1\n      0x60\n      add\n      0x40\n      mstore\n      dup1\n        /* \"Secim.sol\":440:450  adaySayisi */\n      sload(0x02)\n        /* \"Secim.sol\":435:461  Aday(adaySayisi, _isim, 0) */\n      dup2\n      mstore\n      0x20\n      add\n        /* \"Secim.sol\":452:457  _isim */\n      dup3\n        /* \"Secim.sol\":435:461  Aday(adaySayisi, _isim, 0) */\n      dup2\n      mstore\n      0x20\n      add\n        /* \"Secim.sol\":459:460  0 */\n      0x00\n        /* \"Secim.sol\":435:461  Aday(adaySayisi, _isim, 0) */\n      dup2\n      mstore\n      pop\n        /* \"Secim.sol\":413:420  adaylar */\n      0x00\n        /* \"Secim.sol\":413:432  adaylar[adaySayisi] */\n      dup1\n        /* \"Secim.sol\":421:431  adaySayisi */\n      sload(0x02)\n        /* \"Secim.sol\":413:432  adaylar[adaySayisi] */\n      dup2\n      mstore\n      0x20\n      add\n      swap1\n      dup2\n      mstore\n      0x20\n      add\n      0x00\n      keccak256\n        /* \"Secim.sol\":413:461  adaylar[adaySayisi] = Aday(adaySayisi, _isim, 0) */\n      0x00\n      dup3\n      add\n      mload\n      dup2\n      0x00\n      add\n      sstore\n      0x20\n      dup3\n      add\n      mload\n      dup2\n      0x01\n      add\n      swap1\n      dup2\n      tag_40\n      swap2\n      swap1\n      tag_41\n      jump\t// in\n    tag_40:\n      pop\n      0x40\n      dup3\n      add\n      mload\n      dup2\n      0x02\n      add\n      sstore\n      swap1\n      pop\n      pop\n        /* \"Secim.sol\":335:468  function adayEkle(string memory _isim) public {... */\n      pop\n      jump\t// out\n        /* \"Secim.sol\":515:777  function oyVer(string memory _tcNo, uint _adayId) public {... */\n    tag_21:\n        /* \"Secim.sol\":591:603  oyKullandiMi */\n      0x01\n        /* \"Secim.sol\":604:609  _tcNo */\n      dup3\n        /* \"Secim.sol\":591:610  oyKullandiMi[_tcNo] */\n      mload(0x40)\n      tag_43\n      swap2\n      swap1\n      tag_44\n      jump\t// in\n    tag_43:\n      swap1\n      dup2\n      mstore\n      0x20\n      add\n      mload(0x40)\n      dup1\n      swap2\n      sub\n      swap1\n      keccak256\n      0x00\n      swap1\n      sload\n      swap1\n      0x0100\n      exp\n      swap1\n      div\n      0xff\n      and\n        /* \"Secim.sol\":590:610  !oyKullandiMi[_tcNo] */\n      iszero\n        /* \"Secim.sol\":582:655  require(!oyKullandiMi[_tcNo], \"Bu TC Kimlik No ile zaten oy kullanildi!\") */\n      tag_45\n      jumpi\n      mload(0x40)\n      0x08c379a000000000000000000000000000000000000000000000000000000000\n      dup2\n      mstore\n      0x04\n      add\n      tag_46\n      swap1\n      tag_47\n      jump\t// in\n    tag_46:\n      mload(0x40)\n      dup1\n      swap2\n      sub\n      swap1\n      revert\n    tag_45:\n        /* \"Secim.sol\":696:700  true */\n      0x01\n        /* \"Secim.sol\":674:686  oyKullandiMi */\n      dup1\n        /* \"Secim.sol\":687:692  _tcNo */\n      dup4\n        /* \"Secim.sol\":674:693  oyKullandiMi[_tcNo] */\n      mload(0x40)\n      tag_48\n      swap2\n      swap1\n      tag_44\n      jump\t// in\n    tag_48:\n      swap1\n      dup2\n      mstore\n      0x20\n      add\n      mload(0x40)\n      dup1\n      swap2\n      sub\n      swap1\n      keccak256\n      0x00\n        /* \"Secim.sol\":674:700  oyKullandiMi[_tcNo] = true */\n      0x0100\n      exp\n      dup2\n      sload\n      dup2\n      0xff\n      mul\n      not\n      and\n      swap1\n      dup4\n      iszero\n      iszero\n      mul\n      or\n      swap1\n      sstore\n      pop\n        /* \"Secim.sol\":729:736  adaylar */\n      0x00\n        /* \"Secim.sol\":729:745  adaylar[_adayId] */\n      dup1\n        /* \"Secim.sol\":737:744  _adayId */\n      dup3\n        /* \"Secim.sol\":729:745  adaylar[_adayId] */\n      dup2\n      mstore\n      0x20\n      add\n      swap1\n      dup2\n      mstore\n      0x20\n      add\n      0x00\n      keccak256\n        /* \"Secim.sol\":729:754  adaylar[_adayId].oySayisi */\n      0x02\n      add\n      0x00\n        /* \"Secim.sol\":729:756  adaylar[_adayId].oySayisi++ */\n      dup2\n      sload\n      dup1\n      swap3\n      swap2\n      swap1\n      tag_49\n      swap1\n      tag_39\n      jump\t// in\n    tag_49:\n      swap2\n      swap1\n      pop\n      sstore\n      pop\n        /* \"Secim.sol\":515:777  function oyVer(string memory _tcNo, uint _adayId) public {... */\n      pop\n      pop\n      jump\t// out\n        /* \"Secim.sol\":251:294  mapping(string => bool) public oyKullandiMi */\n    tag_24:\n      0x01\n      dup2\n      dup1\n      mload\n      0x20\n      dup2\n      add\n      dup3\n      add\n      dup1\n      mload\n      dup5\n      dup3\n      mstore\n      0x20\n      dup4\n      add\n      0x20\n      dup6\n      add\n      keccak256\n      dup2\n      dup4\n      mstore\n      dup1\n      swap6\n      pop\n      pop\n      pop\n      pop\n      pop\n      pop\n      0x00\n      swap2\n      pop\n      sload\n      swap1\n      0x0100\n      exp\n      swap1\n      div\n      0xff\n      and\n      dup2\n      jump\t// out\n        /* \"Secim.sol\":306:328  uint public adaySayisi */\n    tag_28:\n      sload(0x02)\n      dup2\n      jump\t// out\n        /* \"#utility.yul\":7:82   */\n    tag_50:\n        /* \"#utility.yul\":40:46   */\n      0x00\n        /* \"#utility.yul\":73:75   */\n      0x40\n        /* \"#utility.yul\":67:76   */\n      mload\n        /* \"#utility.yul\":57:76   */\n      swap1\n      pop\n        /* \"#utility.yul\":7:82   */\n      swap1\n      jump\t// out\n        /* \"#utility.yul\":88:205   */\n    tag_51:\n        /* \"#utility.yul\":197:198   */\n      0x00\n        /* \"#utility.yul\":194:195   */\n      dup1\n        /* \"#utility.yul\":187:199   */\n      revert\n        /* \"#utility.yul\":211:328   */\n    tag_52:\n        /* \"#utility.yul\":320:321   */\n      0x00\n        /* \"#utility.yul\":317:318   */\n      dup1\n        /* \"#utility.yul\":310:322   */\n      revert\n        /* \"#utility.yul\":334:411   */\n    tag_53:\n        /* \"#utility.yul\":371:378   */\n      0x00\n        /* \"#utility.yul\":400:405   */\n      dup2\n        /* \"#utility.yul\":389:405   */\n      swap1\n      pop\n        /* \"#utility.yul\":334:411   */\n      swap2\n      swap1\n      pop\n      jump\t// out\n        /* \"#utility.yul\":417:539   */\n    tag_54:\n        /* \"#utility.yul\":490:514   */\n      tag_100\n        /* \"#utility.yul\":508:513   */\n      dup2\n        /* \"#utility.yul\":490:514   */\n      tag_53\n      jump\t// in\n    tag_100:\n        /* \"#utility.yul\":483:488   */\n      dup2\n        /* \"#utility.yul\":480:515   */\n      eq\n        /* \"#utility.yul\":470:533   */\n      tag_101\n      jumpi\n        /* \"#utility.yul\":529:530   */\n      0x00\n        /* \"#utility.yul\":526:527   */\n      dup1\n        /* \"#utility.yul\":519:531   */\n      revert\n        /* \"#utility.yul\":470:533   */\n    tag_101:\n        /* \"#utility.yul\":417:539   */\n      pop\n      jump\t// out\n        /* \"#utility.yul\":545:684   */\n    tag_55:\n        /* \"#utility.yul\":591:596   */\n      0x00\n        /* \"#utility.yul\":629:635   */\n      dup2\n        /* \"#utility.yul\":616:636   */\n      calldataload\n        /* \"#utility.yul\":607:636   */\n      swap1\n      pop\n        /* \"#utility.yul\":645:678   */\n      tag_103\n        /* \"#utility.yul\":672:677   */\n      dup2\n        /* \"#utility.yul\":645:678   */\n      tag_54\n      jump\t// in\n    tag_103:\n        /* \"#utility.yul\":545:684   */\n      swap3\n      swap2\n      pop\n      pop\n      jump\t// out\n        /* \"#utility.yul\":690:1019   */\n    tag_10:\n        /* \"#utility.yul\":749:755   */\n      0x00\n        /* \"#utility.yul\":798:800   */\n      0x20\n        /* \"#utility.yul\":786:795   */\n      dup3\n        /* \"#utility.yul\":777:784   */\n      dup5\n        /* \"#utility.yul\":773:796   */\n      sub\n        /* \"#utility.yul\":769:801   */\n      slt\n        /* \"#utility.yul\":766:885   */\n      iszero\n      tag_105\n      jumpi\n        /* \"#utility.yul\":804:883   */\n      tag_106\n      tag_51\n      jump\t// in\n    tag_106:\n        /* \"#utility.yul\":766:885   */\n    tag_105:\n        /* \"#utility.yul\":924:925   */\n      0x00\n        /* \"#utility.yul\":949:1002   */\n      tag_107\n        /* \"#utility.yul\":994:1001   */\n      dup5\n        /* \"#utility.yul\":985:991   */\n      dup3\n        /* \"#utility.yul\":974:983   */\n      dup6\n        /* \"#utility.yul\":970:992   */\n      add\n        /* \"#utility.yul\":949:1002   */\n      tag_55\n      jump\t// in\n    tag_107:\n        /* \"#utility.yul\":939:1002   */\n      swap2\n      pop\n        /* \"#utility.yul\":895:1012   */\n      pop\n        /* \"#utility.yul\":690:1019   */\n      swap3\n      swap2\n      pop\n      pop\n      jump\t// out\n        /* \"#utility.yul\":1025:1143   */\n    tag_56:\n        /* \"#utility.yul\":1112:1136   */\n      tag_109\n        /* \"#utility.yul\":1130:1135   */\n      dup2\n        /* \"#utility.yul\":1112:1136   */\n      tag_53\n      jump\t// in\n    tag_109:\n        /* \"#utility.yul\":1107:1110   */\n      dup3\n        /* \"#utility.yul\":1100:1137   */\n      mstore\n        /* \"#utility.yul\":1025:1143   */\n      pop\n      pop\n      jump\t// out\n        /* \"#utility.yul\":1149:1248   */\n    tag_57:\n        /* \"#utility.yul\":1201:1207   */\n      0x00\n        /* \"#utility.yul\":1235:1240   */\n      dup2\n        /* \"#utility.yul\":1229:1241   */\n      mload\n        /* \"#utility.yul\":1219:1241   */\n      swap1\n      pop\n        /* \"#utility.yul\":1149:1248   */\n      swap2\n      swap1\n      pop\n      jump\t// out\n        /* \"#utility.yul\":1254:1423   */\n    tag_58:\n        /* \"#utility.yul\":1338:1349   */\n      0x00\n        /* \"#utility.yul\":1372:1378   */\n      dup3\n        /* \"#utility.yul\":1367:1370   */\n      dup3\n        /* \"#utility.yul\":1360:1379   */\n      mstore\n        /* \"#utility.yul\":1412:1416   */\n      0x20\n        /* \"#utility.yul\":1407:1410   */\n      dup3\n        /* \"#utility.yul\":1403:1417   */\n      add\n        /* \"#utility.yul\":1388:1417   */\n      swap1\n      pop\n        /* \"#utility.yul\":1254:1423   */\n      swap3\n      swap2\n      pop\n      pop\n      jump\t// out\n        /* \"#utility.yul\":1429:1677   */\n    tag_59:\n        /* \"#utility.yul\":1511:1512   */\n      0x00\n        /* \"#utility.yul\":1521:1634   */\n    tag_113:\n        /* \"#utility.yul\":1535:1541   */\n      dup4\n        /* \"#utility.yul\":1532:1533   */\n      dup2\n        /* \"#utility.yul\":1529:1542   */\n      lt\n        /* \"#utility.yul\":1521:1634   */\n      iszero\n      tag_115\n      jumpi\n        /* \"#utility.yul\":1620:1621   */\n      dup1\n        /* \"#utility.yul\":1615:1618   */\n      dup3\n        /* \"#utility.yul\":1611:1622   */\n      add\n        /* \"#utility.yul\":1605:1623   */\n      mload\n        /* \"#utility.yul\":1601:1602   */\n      dup2\n        /* \"#utility.yul\":1596:1599   */\n      dup5\n        /* \"#utility.yul\":1592:1603   */\n      add\n        /* \"#utility.yul\":1585:1624   */\n      mstore\n        /* \"#utility.yul\":1557:1559   */\n      0x20\n        /* \"#utility.yul\":1554:1555   */\n      dup2\n        /* \"#utility.yul\":1550:1560   */\n      add\n        /* \"#utility.yul\":1545:1560   */\n      swap1\n      pop\n        /* \"#utility.yul\":1521:1634   */\n      jump(tag_113)\n    tag_115:\n        /* \"#utility.yul\":1668:1669   */\n      0x00\n        /* \"#utility.yul\":1659:1665   */\n      dup5\n        /* \"#utility.yul\":1654:1657   */\n      dup5\n        /* \"#utility.yul\":1650:1666   */\n      add\n        /* \"#utility.yul\":1643:1670   */\n      mstore\n        /* \"#utility.yul\":1491:1677   */\n      pop\n        /* \"#utility.yul\":1429:1677   */\n      pop\n      pop\n      pop\n      jump\t// out\n        /* \"#utility.yul\":1683:1785   */\n    tag_60:\n        /* \"#utility.yul\":1724:1730   */\n      0x00\n        /* \"#utility.yul\":1775:1777   */\n      0x1f\n        /* \"#utility.yul\":1771:1778   */\n      not\n        /* \"#utility.yul\":1766:1768   */\n      0x1f\n        /* \"#utility.yul\":1759:1764   */\n      dup4\n        /* \"#utility.yul\":1755:1769   */\n      add\n        /* \"#utility.yul\":1751:1779   */\n      and\n        /* \"#utility.yul\":1741:1779   */\n      swap1\n      pop\n        /* \"#utility.yul\":1683:1785   */\n      swap2\n      swap1\n      pop\n      jump\t// out\n        /* \"#utility.yul\":1791:2168   */\n    tag_61:\n        /* \"#utility.yul\":1879:1882   */\n      0x00\n        /* \"#utility.yul\":1907:1946   */\n      tag_118\n        /* \"#utility.yul\":1940:1945   */\n      dup3\n        /* \"#utility.yul\":1907:1946   */\n      tag_57\n      jump\t// in\n    tag_118:\n        /* \"#utility.yul\":1962:2033   */\n      tag_119\n        /* \"#utility.yul\":2026:2032   */\n      dup2\n        /* \"#utility.yul\":2021:2024   */\n      dup6\n        /* \"#utility.yul\":1962:2033   */\n      tag_58\n      jump\t// in\n    tag_119:\n        /* \"#utility.yul\":1955:2033   */\n      swap4\n      pop\n        /* \"#utility.yul\":2042:2107   */\n      tag_120\n        /* \"#utility.yul\":2100:2106   */\n      dup2\n        /* \"#utility.yul\":2095:2098   */\n      dup6\n        /* \"#utility.yul\":2088:2092   */\n      0x20\n        /* \"#utility.yul\":2081:2086   */\n      dup7\n        /* \"#utility.yul\":2077:2093   */\n      add\n        /* \"#utility.yul\":2042:2107   */\n      tag_59\n      jump\t// in\n    tag_120:\n        /* \"#utility.yul\":2132:2161   */\n      tag_121\n        /* \"#utility.yul\":2154:2160   */\n      dup2\n        /* \"#utility.yul\":2132:2161   */\n      tag_60\n      jump\t// in\n    tag_121:\n        /* \"#utility.yul\":2127:2130   */\n      dup5\n        /* \"#utility.yul\":2123:2162   */\n      add\n        /* \"#utility.yul\":2116:2162   */\n      swap2\n      pop\n        /* \"#utility.yul\":1883:2168   */\n      pop\n        /* \"#utility.yul\":1791:2168   */\n      swap3\n      swap2\n      pop\n      pop\n      jump\t// out\n        /* \"#utility.yul\":2174:2707   */\n    tag_13:\n        /* \"#utility.yul\":2343:2347   */\n      0x00\n        /* \"#utility.yul\":2381:2383   */\n      0x60\n        /* \"#utility.yul\":2370:2379   */\n      dup3\n        /* \"#utility.yul\":2366:2384   */\n      add\n        /* \"#utility.yul\":2358:2384   */\n      swap1\n      pop\n        /* \"#utility.yul\":2394:2465   */\n      tag_123\n        /* \"#utility.yul\":2462:2463   */\n      0x00\n        /* \"#utility.yul\":2451:2460   */\n      dup4\n        /* \"#utility.yul\":2447:2464   */\n      add\n        /* \"#utility.yul\":2438:2444   */\n      dup7\n        /* \"#utility.yul\":2394:2465   */\n      tag_56\n      jump\t// in\n    tag_123:\n        /* \"#utility.yul\":2512:2521   */\n      dup2\n        /* \"#utility.yul\":2506:2510   */\n      dup2\n        /* \"#utility.yul\":2502:2522   */\n      sub\n        /* \"#utility.yul\":2497:2499   */\n      0x20\n        /* \"#utility.yul\":2486:2495   */\n      dup4\n        /* \"#utility.yul\":2482:2500   */\n      add\n        /* \"#utility.yul\":2475:2523   */\n      mstore\n        /* \"#utility.yul\":2540:2618   */\n      tag_124\n        /* \"#utility.yul\":2613:2617   */\n      dup2\n        /* \"#utility.yul\":2604:2610   */\n      dup6\n        /* \"#utility.yul\":2540:2618   */\n      tag_61\n      jump\t// in\n    tag_124:\n        /* \"#utility.yul\":2532:2618   */\n      swap1\n      pop\n        /* \"#utility.yul\":2628:2700   */\n      tag_125\n        /* \"#utility.yul\":2696:2698   */\n      0x40\n        /* \"#utility.yul\":2685:2694   */\n      dup4\n        /* \"#utility.yul\":2681:2699   */\n      add\n        /* \"#utility.yul\":2672:2678   */\n      dup5\n        /* \"#utility.yul\":2628:2700   */\n      tag_56\n      jump\t// in\n    tag_125:\n        /* \"#utility.yul\":2174:2707   */\n      swap5\n      swap4\n      pop\n      pop\n      pop\n      pop\n      jump\t// out\n        /* \"#utility.yul\":2713:2830   */\n    tag_62:\n        /* \"#utility.yul\":2822:2823   */\n      0x00\n        /* \"#utility.yul\":2819:2820   */\n      dup1\n        /* \"#utility.yul\":2812:2824   */\n      revert\n        /* \"#utility.yul\":2836:2953   */\n    tag_63:\n        /* \"#utility.yul\":2945:2946   */\n      0x00\n        /* \"#utility.yul\":2942:2943   */\n      dup1\n        /* \"#utility.yul\":2935:2947   */\n      revert\n        /* \"#utility.yul\":2959:3139   */\n    tag_64:\n        /* \"#utility.yul\":3007:3084   */\n      0x4e487b7100000000000000000000000000000000000000000000000000000000\n        /* \"#utility.yul\":3004:3005   */\n      0x00\n        /* \"#utility.yul\":2997:3085   */\n      mstore\n        /* \"#utility.yul\":3104:3108   */\n      0x41\n        /* \"#utility.yul\":3101:3102   */\n      0x04\n        /* \"#utility.yul\":3094:3109   */\n      mstore\n        /* \"#utility.yul\":3128:3132   */\n      0x24\n        /* \"#utility.yul\":3125:3126   */\n      0x00\n        /* \"#utility.yul\":3118:3133   */\n      revert\n        /* \"#utility.yul\":3145:3426   */\n    tag_65:\n        /* \"#utility.yul\":3228:3255   */\n      tag_130\n        /* \"#utility.yul\":3250:3254   */\n      dup3\n        /* \"#utility.yul\":3228:3255   */\n      tag_60\n      jump\t// in\n    tag_130:\n        /* \"#utility.yul\":3220:3226   */\n      dup2\n        /* \"#utility.yul\":3216:3256   */\n      add\n        /* \"#utility.yul\":3358:3364   */\n      dup2\n        /* \"#utility.yul\":3346:3356   */\n      dup2\n        /* \"#utility.yul\":3343:3365   */\n      lt\n        /* \"#utility.yul\":3322:3340   */\n      0xffffffffffffffff\n        /* \"#utility.yul\":3310:3320   */\n      dup3\n        /* \"#utility.yul\":3307:3341   */\n      gt\n        /* \"#utility.yul\":3304:3366   */\n      or\n        /* \"#utility.yul\":3301:3389   */\n      iszero\n      tag_131\n      jumpi\n        /* \"#utility.yul\":3369:3387   */\n      tag_132\n      tag_64\n      jump\t// in\n    tag_132:\n        /* \"#utility.yul\":3301:3389   */\n    tag_131:\n        /* \"#utility.yul\":3409:3419   */\n      dup1\n        /* \"#utility.yul\":3405:3407   */\n      0x40\n        /* \"#utility.yul\":3398:3420   */\n      mstore\n        /* \"#utility.yul\":3188:3426   */\n      pop\n        /* \"#utility.yul\":3145:3426   */\n      pop\n      pop\n      jump\t// out\n        /* \"#utility.yul\":3432:3561   */\n    tag_66:\n        /* \"#utility.yul\":3466:3472   */\n      0x00\n        /* \"#utility.yul\":3493:3513   */\n      tag_134\n      tag_50\n      jump\t// in\n    tag_134:\n        /* \"#utility.yul\":3483:3513   */\n      swap1\n      pop\n        /* \"#utility.yul\":3522:3555   */\n      tag_135\n        /* \"#utility.yul\":3550:3554   */\n      dup3\n        /* \"#utility.yul\":3542:3548   */\n      dup3\n        /* \"#utility.yul\":3522:3555   */\n      tag_65\n      jump\t// in\n    tag_135:\n        /* \"#utility.yul\":3432:3561   */\n      swap2\n      swap1\n      pop\n      jump\t// out\n        /* \"#utility.yul\":3567:3875   */\n    tag_67:\n        /* \"#utility.yul\":3629:3633   */\n      0x00\n        /* \"#utility.yul\":3719:3737   */\n      0xffffffffffffffff\n        /* \"#utility.yul\":3711:3717   */\n      dup3\n        /* \"#utility.yul\":3708:3738   */\n      gt\n        /* \"#utility.yul\":3705:3761   */\n      iszero\n      tag_137\n      jumpi\n        /* \"#utility.yul\":3741:3759   */\n      tag_138\n      tag_64\n      jump\t// in\n    tag_138:\n        /* \"#utility.yul\":3705:3761   */\n    tag_137:\n        /* \"#utility.yul\":3779:3808   */\n      tag_139\n        /* \"#utility.yul\":3801:3807   */\n      dup3\n        /* \"#utility.yul\":3779:3808   */\n      tag_60\n      jump\t// in\n    tag_139:\n        /* \"#utility.yul\":3771:3808   */\n      swap1\n      pop\n        /* \"#utility.yul\":3863:3867   */\n      0x20\n        /* \"#utility.yul\":3857:3861   */\n      dup2\n        /* \"#utility.yul\":3853:3868   */\n      add\n        /* \"#utility.yul\":3845:3868   */\n      swap1\n      pop\n        /* \"#utility.yul\":3567:3875   */\n      swap2\n      swap1\n      pop\n      jump\t// out\n        /* \"#utility.yul\":3881:4029   */\n    tag_68:\n        /* \"#utility.yul\":3979:3985   */\n      dup3\n        /* \"#utility.yul\":3974:3977   */\n      dup2\n        /* \"#utility.yul\":3969:3972   */\n      dup4\n        /* \"#utility.yul\":3956:3986   */\n      calldatacopy\n        /* \"#utility.yul\":4020:4021   */\n      0x00\n        /* \"#utility.yul\":4011:4017   */\n      dup4\n        /* \"#utility.yul\":4006:4009   */\n      dup4\n        /* \"#utility.yul\":4002:4018   */\n      add\n        /* \"#utility.yul\":3995:4022   */\n      mstore\n        /* \"#utility.yul\":3881:4029   */\n      pop\n      pop\n      pop\n      jump\t// out\n        /* \"#utility.yul\":4035:4460   */\n    tag_69:\n        /* \"#utility.yul\":4113:4118   */\n      0x00\n        /* \"#utility.yul\":4138:4204   */\n      tag_142\n        /* \"#utility.yul\":4154:4203   */\n      tag_143\n        /* \"#utility.yul\":4196:4202   */\n      dup5\n        /* \"#utility.yul\":4154:4203   */\n      tag_67\n      jump\t// in\n    tag_143:\n        /* \"#utility.yul\":4138:4204   */\n      tag_66\n      jump\t// in\n    tag_142:\n        /* \"#utility.yul\":4129:4204   */\n      swap1\n      pop\n        /* \"#utility.yul\":4227:4233   */\n      dup3\n        /* \"#utility.yul\":4220:4225   */\n      dup2\n        /* \"#utility.yul\":4213:4234   */\n      mstore\n        /* \"#utility.yul\":4265:4269   */\n      0x20\n        /* \"#utility.yul\":4258:4263   */\n      dup2\n        /* \"#utility.yul\":4254:4270   */\n      add\n        /* \"#utility.yul\":4303:4306   */\n      dup5\n        /* \"#utility.yul\":4294:4300   */\n      dup5\n        /* \"#utility.yul\":4289:4292   */\n      dup5\n        /* \"#utility.yul\":4285:4301   */\n      add\n        /* \"#utility.yul\":4282:4307   */\n      gt\n        /* \"#utility.yul\":4279:4391   */\n      iszero\n      tag_144\n      jumpi\n        /* \"#utility.yul\":4310:4389   */\n      tag_145\n      tag_63\n      jump\t// in\n    tag_145:\n        /* \"#utility.yul\":4279:4391   */\n    tag_144:\n        /* \"#utility.yul\":4400:4454   */\n      tag_146\n        /* \"#utility.yul\":4447:4453   */\n      dup5\n        /* \"#utility.yul\":4442:4445   */\n      dup3\n        /* \"#utility.yul\":4437:4440   */\n      dup6\n        /* \"#utility.yul\":4400:4454   */\n      tag_68\n      jump\t// in\n    tag_146:\n        /* \"#utility.yul\":4119:4460   */\n      pop\n        /* \"#utility.yul\":4035:4460   */\n      swap4\n      swap3\n      pop\n      pop\n      pop\n      jump\t// out\n        /* \"#utility.yul\":4480:4820   */\n    tag_70:\n        /* \"#utility.yul\":4536:4541   */\n      0x00\n        /* \"#utility.yul\":4585:4588   */\n      dup3\n        /* \"#utility.yul\":4578:4582   */\n      0x1f\n        /* \"#utility.yul\":4570:4576   */\n      dup4\n        /* \"#utility.yul\":4566:4583   */\n      add\n        /* \"#utility.yul\":4562:4589   */\n      slt\n        /* \"#utility.yul\":4552:4674   */\n      tag_148\n      jumpi\n        /* \"#utility.yul\":4593:4672   */\n      tag_149\n      tag_62\n      jump\t// in\n    tag_149:\n        /* \"#utility.yul\":4552:4674   */\n    tag_148:\n        /* \"#utility.yul\":4710:4716   */\n      dup2\n        /* \"#utility.yul\":4697:4717   */\n      calldataload\n        /* \"#utility.yul\":4735:4814   */\n      tag_150\n        /* \"#utility.yul\":4810:4813   */\n      dup5\n        /* \"#utility.yul\":4802:4808   */\n      dup3\n        /* \"#utility.yul\":4795:4799   */\n      0x20\n        /* \"#utility.yul\":4787:4793   */\n      dup7\n        /* \"#utility.yul\":4783:4800   */\n      add\n        /* \"#utility.yul\":4735:4814   */\n      tag_69\n      jump\t// in\n    tag_150:\n        /* \"#utility.yul\":4726:4814   */\n      swap2\n      pop\n        /* \"#utility.yul\":4542:4820   */\n      pop\n        /* \"#utility.yul\":4480:4820   */\n      swap3\n      swap2\n      pop\n      pop\n      jump\t// out\n        /* \"#utility.yul\":4826:5335   */\n    tag_16:\n        /* \"#utility.yul\":4895:4901   */\n      0x00\n        /* \"#utility.yul\":4944:4946   */\n      0x20\n        /* \"#utility.yul\":4932:4941   */\n      dup3\n        /* \"#utility.yul\":4923:4930   */\n      dup5\n        /* \"#utility.yul\":4919:4942   */\n      sub\n        /* \"#utility.yul\":4915:4947   */\n      slt\n        /* \"#utility.yul\":4912:5031   */\n      iszero\n      tag_152\n      jumpi\n        /* \"#utility.yul\":4950:5029   */\n      tag_153\n      tag_51\n      jump\t// in\n    tag_153:\n        /* \"#utility.yul\":4912:5031   */\n    tag_152:\n        /* \"#utility.yul\":5098:5099   */\n      0x00\n        /* \"#utility.yul\":5087:5096   */\n      dup3\n        /* \"#utility.yul\":5083:5100   */\n      add\n        /* \"#utility.yul\":5070:5101   */\n      calldataload\n        /* \"#utility.yul\":5128:5146   */\n      0xffffffffffffffff\n        /* \"#utility.yul\":5120:5126   */\n      dup2\n        /* \"#utility.yul\":5117:5147   */\n      gt\n        /* \"#utility.yul\":5114:5231   */\n      iszero\n      tag_154\n      jumpi\n        /* \"#utility.yul\":5150:5229   */\n      tag_155\n      tag_52\n      jump\t// in\n    tag_155:\n        /* \"#utility.yul\":5114:5231   */\n    tag_154:\n        /* \"#utility.yul\":5255:5318   */\n      tag_156\n        /* \"#utility.yul\":5310:5317   */\n      dup5\n        /* \"#utility.yul\":5301:5307   */\n      dup3\n        /* \"#utility.yul\":5290:5299   */\n      dup6\n        /* \"#utility.yul\":5286:5308   */\n      add\n        /* \"#utility.yul\":5255:5318   */\n      tag_70\n      jump\t// in\n    tag_156:\n        /* \"#utility.yul\":5245:5318   */\n      swap2\n      pop\n        /* \"#utility.yul\":5041:5328   */\n      pop\n        /* \"#utility.yul\":4826:5335   */\n      swap3\n      swap2\n      pop\n      pop\n      jump\t// out\n        /* \"#utility.yul\":5341:5995   */\n    tag_20:\n        /* \"#utility.yul\":5419:5425   */\n      0x00\n        /* \"#utility.yul\":5427:5433   */\n      dup1\n        /* \"#utility.yul\":5476:5478   */\n      0x40\n        /* \"#utility.yul\":5464:5473   */\n      dup4\n        /* \"#utility.yul\":5455:5462   */\n      dup6\n        /* \"#utility.yul\":5451:5474   */\n      sub\n        /* \"#utility.yul\":5447:5479   */\n      slt\n        /* \"#utility.yul\":5444:5563   */\n      iszero\n      tag_158\n      jumpi\n        /* \"#utility.yul\":5482:5561   */\n      tag_159\n      tag_51\n      jump\t// in\n    tag_159:\n        /* \"#utility.yul\":5444:5563   */\n    tag_158:\n        /* \"#utility.yul\":5630:5631   */\n      0x00\n        /* \"#utility.yul\":5619:5628   */\n      dup4\n        /* \"#utility.yul\":5615:5632   */\n      add\n        /* \"#utility.yul\":5602:5633   */\n      calldataload\n        /* \"#utility.yul\":5660:5678   */\n      0xffffffffffffffff\n        /* \"#utility.yul\":5652:5658   */\n      dup2\n        /* \"#utility.yul\":5649:5679   */\n      gt\n        /* \"#utility.yul\":5646:5763   */\n      iszero\n      tag_160\n      jumpi\n        /* \"#utility.yul\":5682:5761   */\n      tag_161\n      tag_52\n      jump\t// in\n    tag_161:\n        /* \"#utility.yul\":5646:5763   */\n    tag_160:\n        /* \"#utility.yul\":5787:5850   */\n      tag_162\n        /* \"#utility.yul\":5842:5849   */\n      dup6\n        /* \"#utility.yul\":5833:5839   */\n      dup3\n        /* \"#utility.yul\":5822:5831   */\n      dup7\n        /* \"#utility.yul\":5818:5840   */\n      add\n        /* \"#utility.yul\":5787:5850   */\n      tag_70\n      jump\t// in\n    tag_162:\n        /* \"#utility.yul\":5777:5850   */\n      swap3\n      pop\n        /* \"#utility.yul\":5573:5860   */\n      pop\n        /* \"#utility.yul\":5899:5901   */\n      0x20\n        /* \"#utility.yul\":5925:5978   */\n      tag_163\n        /* \"#utility.yul\":5970:5977   */\n      dup6\n        /* \"#utility.yul\":5961:5967   */\n      dup3\n        /* \"#utility.yul\":5950:5959   */\n      dup7\n        /* \"#utility.yul\":5946:5968   */\n      add\n        /* \"#utility.yul\":5925:5978   */\n      tag_55\n      jump\t// in\n    tag_163:\n        /* \"#utility.yul\":5915:5978   */\n      swap2\n      pop\n        /* \"#utility.yul\":5870:5988   */\n      pop\n        /* \"#utility.yul\":5341:5995   */\n      swap3\n      pop\n      swap3\n      swap1\n      pop\n      jump\t// out\n        /* \"#utility.yul\":6001:6091   */\n    tag_71:\n        /* \"#utility.yul\":6035:6042   */\n      0x00\n        /* \"#utility.yul\":6078:6083   */\n      dup2\n        /* \"#utility.yul\":6071:6084   */\n      iszero\n        /* \"#utility.yul\":6064:6085   */\n      iszero\n        /* \"#utility.yul\":6053:6085   */\n      swap1\n      pop\n        /* \"#utility.yul\":6001:6091   */\n      swap2\n      swap1\n      pop\n      jump\t// out\n        /* \"#utility.yul\":6097:6206   */\n    tag_72:\n        /* \"#utility.yul\":6178:6199   */\n      tag_166\n        /* \"#utility.yul\":6193:6198   */\n      dup2\n        /* \"#utility.yul\":6178:6199   */\n      tag_71\n      jump\t// in\n    tag_166:\n        /* \"#utility.yul\":6173:6176   */\n      dup3\n        /* \"#utility.yul\":6166:6200   */\n      mstore\n        /* \"#utility.yul\":6097:6206   */\n      pop\n      pop\n      jump\t// out\n        /* \"#utility.yul\":6212:6422   */\n    tag_26:\n        /* \"#utility.yul\":6299:6303   */\n      0x00\n        /* \"#utility.yul\":6337:6339   */\n      0x20\n        /* \"#utility.yul\":6326:6335   */\n      dup3\n        /* \"#utility.yul\":6322:6340   */\n      add\n        /* \"#utility.yul\":6314:6340   */\n      swap1\n      pop\n        /* \"#utility.yul\":6350:6415   */\n      tag_168\n        /* \"#utility.yul\":6412:6413   */\n      0x00\n        /* \"#utility.yul\":6401:6410   */\n      dup4\n        /* \"#utility.yul\":6397:6414   */\n      add\n        /* \"#utility.yul\":6388:6394   */\n      dup5\n        /* \"#utility.yul\":6350:6415   */\n      tag_72\n      jump\t// in\n    tag_168:\n        /* \"#utility.yul\":6212:6422   */\n      swap3\n      swap2\n      pop\n      pop\n      jump\t// out\n        /* \"#utility.yul\":6428:6650   */\n    tag_30:\n        /* \"#utility.yul\":6521:6525   */\n      0x00\n        /* \"#utility.yul\":6559:6561   */\n      0x20\n        /* \"#utility.yul\":6548:6557   */\n      dup3\n        /* \"#utility.yul\":6544:6562   */\n      add\n        /* \"#utility.yul\":6536:6562   */\n      swap1\n      pop\n        /* \"#utility.yul\":6572:6643   */\n      tag_170\n        /* \"#utility.yul\":6640:6641   */\n      0x00\n        /* \"#utility.yul\":6629:6638   */\n      dup4\n        /* \"#utility.yul\":6625:6642   */\n      add\n        /* \"#utility.yul\":6616:6622   */\n      dup5\n        /* \"#utility.yul\":6572:6643   */\n      tag_56\n      jump\t// in\n    tag_170:\n        /* \"#utility.yul\":6428:6650   */\n      swap3\n      swap2\n      pop\n      pop\n      jump\t// out\n        /* \"#utility.yul\":6656:6836   */\n    tag_73:\n        /* \"#utility.yul\":6704:6781   */\n      0x4e487b7100000000000000000000000000000000000000000000000000000000\n        /* \"#utility.yul\":6701:6702   */\n      0x00\n        /* \"#utility.yul\":6694:6782   */\n      mstore\n        /* \"#utility.yul\":6801:6805   */\n      0x22\n        /* \"#utility.yul\":6798:6799   */\n      0x04\n        /* \"#utility.yul\":6791:6806   */\n      mstore\n        /* \"#utility.yul\":6825:6829   */\n      0x24\n        /* \"#utility.yul\":6822:6823   */\n      0x00\n        /* \"#utility.yul\":6815:6830   */\n      revert\n        /* \"#utility.yul\":6842:7162   */\n    tag_32:\n        /* \"#utility.yul\":6886:6892   */\n      0x00\n        /* \"#utility.yul\":6923:6924   */\n      0x02\n        /* \"#utility.yul\":6917:6921   */\n      dup3\n        /* \"#utility.yul\":6913:6925   */\n      div\n        /* \"#utility.yul\":6903:6925   */\n      swap1\n      pop\n        /* \"#utility.yul\":6970:6971   */\n      0x01\n        /* \"#utility.yul\":6964:6968   */\n      dup3\n        /* \"#utility.yul\":6960:6972   */\n      and\n        /* \"#utility.yul\":6991:7009   */\n      dup1\n        /* \"#utility.yul\":6981:7062   */\n      tag_173\n      jumpi\n        /* \"#utility.yul\":7047:7051   */\n      0x7f\n        /* \"#utility.yul\":7039:7045   */\n      dup3\n        /* \"#utility.yul\":7035:7052   */\n      and\n        /* \"#utility.yul\":7025:7052   */\n      swap2\n      pop\n        /* \"#utility.yul\":6981:7062   */\n    tag_173:\n        /* \"#utility.yul\":7109:7111   */\n      0x20\n        /* \"#utility.yul\":7101:7107   */\n      dup3\n        /* \"#utility.yul\":7098:7112   */\n      lt\n        /* \"#utility.yul\":7078:7096   */\n      dup2\n        /* \"#utility.yul\":7075:7113   */\n      sub\n        /* \"#utility.yul\":7072:7156   */\n      tag_174\n      jumpi\n        /* \"#utility.yul\":7128:7146   */\n      tag_175\n      tag_73\n      jump\t// in\n    tag_175:\n        /* \"#utility.yul\":7072:7156   */\n    tag_174:\n        /* \"#utility.yul\":6893:7162   */\n      pop\n        /* \"#utility.yul\":6842:7162   */\n      swap2\n      swap1\n      pop\n      jump\t// out\n        /* \"#utility.yul\":7168:7348   */\n    tag_74:\n        /* \"#utility.yul\":7216:7293   */\n      0x4e487b7100000000000000000000000000000000000000000000000000000000\n        /* \"#utility.yul\":7213:7214   */\n      0x00\n        /* \"#utility.yul\":7206:7294   */\n      mstore\n        /* \"#utility.yul\":7313:7317   */\n      0x11\n        /* \"#utility.yul\":7310:7311   */\n      0x04\n        /* \"#utility.yul\":7303:7318   */\n      mstore\n        /* \"#utility.yul\":7337:7341   */\n      0x24\n        /* \"#utility.yul\":7334:7335   */\n      0x00\n        /* \"#utility.yul\":7327:7342   */\n      revert\n        /* \"#utility.yul\":7354:7587   */\n    tag_39:\n        /* \"#utility.yul\":7393:7396   */\n      0x00\n        /* \"#utility.yul\":7416:7440   */\n      tag_178\n        /* \"#utility.yul\":7434:7439   */\n      dup3\n        /* \"#utility.yul\":7416:7440   */\n      tag_53\n      jump\t// in\n    tag_178:\n        /* \"#utility.yul\":7407:7440   */\n      swap2\n      pop\n        /* \"#utility.yul\":7462:7528   */\n      0xffffffffffffffffffffffffffffffffffffffffffffffffffffffffffffffff\n        /* \"#utility.yul\":7455:7460   */\n      dup3\n        /* \"#utility.yul\":7452:7529   */\n      sub\n        /* \"#utility.yul\":7449:7552   */\n      tag_179\n      jumpi\n        /* \"#utility.yul\":7532:7550   */\n      tag_180\n      tag_74\n      jump\t// in\n    tag_180:\n        /* \"#utility.yul\":7449:7552   */\n    tag_179:\n        /* \"#utility.yul\":7579:7580   */\n      0x01\n        /* \"#utility.yul\":7572:7577   */\n      dup3\n        /* \"#utility.yul\":7568:7581   */\n      add\n        /* \"#utility.yul\":7561:7581   */\n      swap1\n      pop\n        /* \"#utility.yul\":7354:7587   */\n      swap2\n      swap1\n      pop\n      jump\t// out\n        /* \"#utility.yul\":7593:7734   */\n    tag_75:\n        /* \"#utility.yul\":7642:7646   */\n      0x00\n        /* \"#utility.yul\":7665:7668   */\n      dup2\n        /* \"#utility.yul\":7657:7668   */\n      swap1\n      pop\n        /* \"#utility.yul\":7688:7691   */\n      dup2\n        /* \"#utility.yul\":7685:7686   */\n      0x00\n        /* \"#utility.yul\":7678:7692   */\n      mstore\n        /* \"#utility.yul\":7722:7726   */\n      0x20\n        /* \"#utility.yul\":7719:7720   */\n      0x00\n        /* \"#utility.yul\":7709:7727   */\n      keccak256\n        /* \"#utility.yul\":7701:7727   */\n      swap1\n      pop\n        /* \"#utility.yul\":7593:7734   */\n      swap2\n      swap1\n      pop\n      jump\t// out\n        /* \"#utility.yul\":7740:7833   */\n    tag_76:\n        /* \"#utility.yul\":7777:7783   */\n      0x00\n        /* \"#utility.yul\":7824:7826   */\n      0x20\n        /* \"#utility.yul\":7819:7821   */\n      0x1f\n        /* \"#utility.yul\":7812:7817   */\n      dup4\n        /* \"#utility.yul\":7808:7822   */\n      add\n        /* \"#utility.yul\":7804:7827   */\n      div\n        /* \"#utility.yul\":7794:7827   */\n      swap1\n      pop\n        /* \"#utility.yul\":7740:7833   */\n      swap2\n      swap1\n      pop\n      jump\t// out\n        /* \"#utility.yul\":7839:7946   */\n    tag_77:\n        /* \"#utility.yul\":7883:7891   */\n      0x00\n        /* \"#utility.yul\":7933:7938   */\n      dup3\n        /* \"#utility.yul\":7927:7931   */\n      dup3\n        /* \"#utility.yul\":7923:7939   */\n      shl\n        /* \"#utility.yul\":7902:7939   */\n      swap1\n      pop\n        /* \"#utility.yul\":7839:7946   */\n      swap3\n      swap2\n      pop\n      pop\n      jump\t// out\n        /* \"#utility.yul\":7952:8345   */\n    tag_78:\n        /* \"#utility.yul\":8021:8027   */\n      0x00\n        /* \"#utility.yul\":8071:8072   */\n      0x08\n        /* \"#utility.yul\":8059:8069   */\n      dup4\n        /* \"#utility.yul\":8055:8073   */\n      mul\n        /* \"#utility.yul\":8094:8191   */\n      tag_185\n        /* \"#utility.yul\":8124:8190   */\n      0xffffffffffffffffffffffffffffffffffffffffffffffffffffffffffffffff\n        /* \"#utility.yul\":8113:8122   */\n      dup3\n        /* \"#utility.yul\":8094:8191   */\n      tag_77\n      jump\t// in\n    tag_185:\n        /* \"#utility.yul\":8212:8251   */\n      tag_186\n        /* \"#utility.yul\":8242:8250   */\n      dup7\n        /* \"#utility.yul\":8231:8240   */\n      dup4\n        /* \"#utility.yul\":8212:8251   */\n      tag_77\n      jump\t// in\n    tag_186:\n        /* \"#utility.yul\":8200:8251   */\n      swap6\n      pop\n        /* \"#utility.yul\":8284:8288   */\n      dup1\n        /* \"#utility.yul\":8280:8289   */\n      not\n        /* \"#utility.yul\":8273:8278   */\n      dup5\n        /* \"#utility.yul\":8269:8290   */\n      and\n        /* \"#utility.yul\":8260:8290   */\n      swap4\n      pop\n        /* \"#utility.yul\":8333:8337   */\n      dup1\n        /* \"#utility.yul\":8323:8331   */\n      dup7\n        /* \"#utility.yul\":8319:8338   */\n      and\n        /* \"#utility.yul\":8312:8317   */\n      dup5\n        /* \"#utility.yul\":8309:8339   */\n      or\n        /* \"#utility.yul\":8299:8339   */\n      swap3\n      pop\n        /* \"#utility.yul\":8028:8345   */\n      pop\n      pop\n        /* \"#utility.yul\":7952:8345   */\n      swap4\n      swap3\n      pop\n      pop\n      pop\n      jump\t// out\n        /* \"#utility.yul\":8351:8411   */\n    tag_79:\n        /* \"#utility.yul\":8379:8382   */\n      0x00\n        /* \"#utility.yul\":8400:8405   */\n      dup2\n        /* \"#utility.yul\":8393:8405   */\n      swap1\n      pop\n        /* \"#utility.yul\":8351:8411   */\n      swap2\n      swap1\n      pop\n      jump\t// out\n        /* \"#utility.yul\":8417:8559   */\n    tag_80:\n        /* \"#utility.yul\":8467:8476   */\n      0x00\n        /* \"#utility.yul\":8500:8553   */\n      tag_189\n        /* \"#utility.yul\":8518:8552   */\n      tag_190\n        /* \"#utility.yul\":8527:8551   */\n      tag_191\n        /* \"#utility.yul\":8545:8550   */\n      dup5\n        /* \"#utility.yul\":8527:8551   */\n      tag_53\n      jump\t// in\n    tag_191:\n        /* \"#utility.yul\":8518:8552   */\n      tag_79\n      jump\t// in\n    tag_190:\n        /* \"#utility.yul\":8500:8553   */\n      tag_53\n      jump\t// in\n    tag_189:\n        /* \"#utility.yul\":8487:8553   */\n      swap1\n      pop\n        /* \"#utility.yul\":8417:8559   */\n      swap2\n      swap1\n      pop\n      jump\t// out\n        /* \"#utility.yul\":8565:8640   */\n    tag_81:\n        /* \"#utility.yul\":8608:8611   */\n      0x00\n        /* \"#utility.yul\":8629:8634   */\n      dup2\n        /* \"#utility.yul\":8622:8634   */\n      swap1\n      pop\n        /* \"#utility.yul\":8565:8640   */\n      swap2\n      swap1\n      pop\n      jump\t// out\n        /* \"#utility.yul\":8646:8915   */\n    tag_82:\n        /* \"#utility.yul\":8756:8795   */\n      tag_194\n        /* \"#utility.yul\":8787:8794   */\n      dup4\n        /* \"#utility.yul\":8756:8795   */\n      tag_80\n      jump\t// in\n    tag_194:\n        /* \"#utility.yul\":8817:8908   */\n      tag_195\n        /* \"#utility.yul\":8866:8907   */\n      tag_196\n        /* \"#utility.yul\":8890:8906   */\n      dup3\n        /* \"#utility.yul\":8866:8907   */\n      tag_81\n      jump\t// in\n    tag_196:\n        /* \"#utility.yul\":8858:8864   */\n      dup5\n        /* \"#utility.yul\":8851:8855   */\n      dup5\n        /* \"#utility.yul\":8845:8856   */\n      sload\n        /* \"#utility.yul\":8817:8908   */\n      tag_78\n      jump\t// in\n    tag_195:\n        /* \"#utility.yul\":8811:8815   */\n      dup3\n        /* \"#utility.yul\":8804:8909   */\n      sstore\n        /* \"#utility.yul\":8722:8915   */\n      pop\n        /* \"#utility.yul\":8646:8915   */\n      pop\n      pop\n      pop\n      jump\t// out\n        /* \"#utility.yul\":8921:8994   */\n    tag_83:\n        /* \"#utility.yul\":8966:8969   */\n      0x00\n        /* \"#utility.yul\":8921:8994   */\n      swap1\n      jump\t// out\n        /* \"#utility.yul\":9000:9189   */\n    tag_84:\n        /* \"#utility.yul\":9077:9109   */\n      tag_199\n      tag_83\n      jump\t// in\n    tag_199:\n        /* \"#utility.yul\":9118:9183   */\n      tag_200\n        /* \"#utility.yul\":9176:9182   */\n      dup2\n        /* \"#utility.yul\":9168:9174   */\n      dup5\n        /* \"#utility.yul\":9162:9166   */\n      dup5\n        /* \"#utility.yul\":9118:9183   */\n      tag_82\n      jump\t// in\n    tag_200:\n        /* \"#utility.yul\":9053:9189   */\n      pop\n        /* \"#utility.yul\":9000:9189   */\n      pop\n      pop\n      jump\t// out\n        /* \"#utility.yul\":9195:9381   */\n    tag_85:\n        /* \"#utility.yul\":9255:9375   */\n    tag_202:\n        /* \"#utility.yul\":9272:9275   */\n      dup2\n        /* \"#utility.yul\":9265:9270   */\n      dup2\n        /* \"#utility.yul\":9262:9276   */\n      lt\n        /* \"#utility.yul\":9255:9375   */\n      iszero\n      tag_204\n      jumpi\n        /* \"#utility.yul\":9326:9365   */\n      tag_205\n        /* \"#utility.yul\":9363:9364   */\n      0x00\n        /* \"#utility.yul\":9356:9361   */\n      dup3\n        /* \"#utility.yul\":9326:9365   */\n      tag_84\n      jump\t// in\n    tag_205:\n        /* \"#utility.yul\":9299:9300   */\n      0x01\n        /* \"#utility.yul\":9292:9297   */\n      dup2\n        /* \"#utility.yul\":9288:9301   */\n      add\n        /* \"#utility.yul\":9279:9301   */\n      swap1\n      pop\n        /* \"#utility.yul\":9255:9375   */\n      jump(tag_202)\n    tag_204:\n        /* \"#utility.yul\":9195:9381   */\n      pop\n      pop\n      jump\t// out\n        /* \"#utility.yul\":9387:9930   */\n    tag_86:\n        /* \"#utility.yul\":9488:9490   */\n      0x1f\n        /* \"#utility.yul\":9483:9486   */\n      dup3\n        /* \"#utility.yul\":9480:9491   */\n      gt\n        /* \"#utility.yul\":9477:9923   */\n      iszero\n      tag_207\n      jumpi\n        /* \"#utility.yul\":9522:9560   */\n      tag_208\n        /* \"#utility.yul\":9554:9559   */\n      dup2\n        /* \"#utility.yul\":9522:9560   */\n      tag_75\n      jump\t// in\n    tag_208:\n        /* \"#utility.yul\":9606:9635   */\n      tag_209\n        /* \"#utility.yul\":9624:9634   */\n      dup5\n        /* \"#utility.yul\":9606:9635   */\n      tag_76\n      jump\t// in\n    tag_209:\n        /* \"#utility.yul\":9596:9604   */\n      dup2\n        /* \"#utility.yul\":9592:9636   */\n      add\n        /* \"#utility.yul\":9789:9791   */\n      0x20\n        /* \"#utility.yul\":9777:9787   */\n      dup6\n        /* \"#utility.yul\":9774:9792   */\n      lt\n        /* \"#utility.yul\":9771:9820   */\n      iszero\n      tag_210\n      jumpi\n        /* \"#utility.yul\":9810:9818   */\n      dup2\n        /* \"#utility.yul\":9795:9818   */\n      swap1\n      pop\n        /* \"#utility.yul\":9771:9820   */\n    tag_210:\n        /* \"#utility.yul\":9833:9913   */\n      tag_211\n        /* \"#utility.yul\":9889:9911   */\n      tag_212\n        /* \"#utility.yul\":9907:9910   */\n      dup6\n        /* \"#utility.yul\":9889:9911   */\n      tag_76\n      jump\t// in\n    tag_212:\n        /* \"#utility.yul\":9879:9887   */\n      dup4\n        /* \"#utility.yul\":9875:9912   */\n      add\n        /* \"#utility.yul\":9862:9873   */\n      dup3\n        /* \"#utility.yul\":9833:9913   */\n      tag_85\n      jump\t// in\n    tag_211:\n        /* \"#utility.yul\":9492:9923   */\n      pop\n      pop\n        /* \"#utility.yul\":9477:9923   */\n    tag_207:\n        /* \"#utility.yul\":9387:9930   */\n      pop\n      pop\n      pop\n      jump\t// out\n        /* \"#utility.yul\":9936:10053   */\n    tag_87:\n        /* \"#utility.yul\":9990:9998   */\n      0x00\n        /* \"#utility.yul\":10040:10045   */\n      dup3\n        /* \"#utility.yul\":10034:10038   */\n      dup3\n        /* \"#utility.yul\":10030:10046   */\n      shr\n        /* \"#utility.yul\":10009:10046   */\n      swap1\n      pop\n        /* \"#utility.yul\":9936:10053   */\n      swap3\n      swap2\n      pop\n      pop\n      jump\t// out\n        /* \"#utility.yul\":10059:10228   */\n    tag_88:\n        /* \"#utility.yul\":10103:10109   */\n      0x00\n        /* \"#utility.yul\":10136:10187   */\n      tag_215\n        /* \"#utility.yul\":10184:10185   */\n      0x00\n        /* \"#utility.yul\":10180:10186   */\n      not\n        /* \"#utility.yul\":10172:10177   */\n      dup5\n        /* \"#utility.yul\":10169:10170   */\n      0x08\n        /* \"#utility.yul\":10165:10178   */\n      mul\n        /* \"#utility.yul\":10136:10187   */\n      tag_87\n      jump\t// in\n    tag_215:\n        /* \"#utility.yul\":10132:10188   */\n      not\n        /* \"#utility.yul\":10217:10221   */\n      dup1\n        /* \"#utility.yul\":10211:10215   */\n      dup4\n        /* \"#utility.yul\":10207:10222   */\n      and\n        /* \"#utility.yul\":10197:10222   */\n      swap2\n      pop\n        /* \"#utility.yul\":10110:10228   */\n      pop\n        /* \"#utility.yul\":10059:10228   */\n      swap3\n      swap2\n      pop\n      pop\n      jump\t// out\n        /* \"#utility.yul\":10233:10528   */\n    tag_89:\n        /* \"#utility.yul\":10309:10313   */\n      0x00\n        /* \"#utility.yul\":10455:10484   */\n      tag_217\n        /* \"#utility.yul\":10480:10483   */\n      dup4\n        /* \"#utility.yul\":10474:10478   */\n      dup4\n        /* \"#utility.yul\":10455:10484   */\n      tag_88\n      jump\t// in\n    tag_217:\n        /* \"#utility.yul\":10447:10484   */\n      swap2\n      pop\n        /* \"#utility.yul\":10517:10520   */\n      dup3\n        /* \"#utility.yul\":10514:10515   */\n      0x02\n        /* \"#utility.yul\":10510:10521   */\n      mul\n        /* \"#utility.yul\":10504:10508   */\n      dup3\n        /* \"#utility.yul\":10501:10522   */\n      or\n        /* \"#utility.yul\":10493:10522   */\n      swap1\n      pop\n        /* \"#utility.yul\":10233:10528   */\n      swap3\n      swap2\n      pop\n      pop\n      jump\t// out\n        /* \"#utility.yul\":10533:11928   */\n    tag_41:\n        /* \"#utility.yul\":10650:10687   */\n      tag_219\n        /* \"#utility.yul\":10683:10686   */\n      dup3\n        /* \"#utility.yul\":10650:10687   */\n      tag_57\n      jump\t// in\n    tag_219:\n        /* \"#utility.yul\":10752:10770   */\n      0xffffffffffffffff\n        /* \"#utility.yul\":10744:10750   */\n      dup2\n        /* \"#utility.yul\":10741:10771   */\n      gt\n        /* \"#utility.yul\":10738:10794   */\n      iszero\n      tag_220\n      jumpi\n        /* \"#utility.yul\":10774:10792   */\n      tag_221\n      tag_64\n      jump\t// in\n    tag_221:\n        /* \"#utility.yul\":10738:10794   */\n    tag_220:\n        /* \"#utility.yul\":10818:10856   */\n      tag_222\n        /* \"#utility.yul\":10850:10854   */\n      dup3\n        /* \"#utility.yul\":10844:10855   */\n      sload\n        /* \"#utility.yul\":10818:10856   */\n      tag_32\n      jump\t// in\n    tag_222:\n        /* \"#utility.yul\":10903:10970   */\n      tag_223\n        /* \"#utility.yul\":10963:10969   */\n      dup3\n        /* \"#utility.yul\":10955:10961   */\n      dup3\n        /* \"#utility.yul\":10949:10953   */\n      dup6\n        /* \"#utility.yul\":10903:10970   */\n      tag_86\n      jump\t// in\n    tag_223:\n        /* \"#utility.yul\":10997:10998   */\n      0x00\n        /* \"#utility.yul\":11021:11025   */\n      0x20\n        /* \"#utility.yul\":11008:11025   */\n      swap1\n      pop\n        /* \"#utility.yul\":11053:11055   */\n      0x1f\n        /* \"#utility.yul\":11045:11051   */\n      dup4\n        /* \"#utility.yul\":11042:11056   */\n      gt\n        /* \"#utility.yul\":11070:11071   */\n      0x01\n        /* \"#utility.yul\":11065:11683   */\n      dup2\n      eq\n      tag_225\n      jumpi\n        /* \"#utility.yul\":11727:11728   */\n      0x00\n        /* \"#utility.yul\":11744:11750   */\n      dup5\n        /* \"#utility.yul\":11741:11818   */\n      iszero\n      tag_226\n      jumpi\n        /* \"#utility.yul\":11793:11802   */\n      dup3\n        /* \"#utility.yul\":11788:11791   */\n      dup8\n        /* \"#utility.yul\":11784:11803   */\n      add\n        /* \"#utility.yul\":11778:11804   */\n      mload\n        /* \"#utility.yul\":11769:11804   */\n      swap1\n      pop\n        /* \"#utility.yul\":11741:11818   */\n    tag_226:\n        /* \"#utility.yul\":11844:11911   */\n      tag_227\n        /* \"#utility.yul\":11904:11910   */\n      dup6\n        /* \"#utility.yul\":11897:11902   */\n      dup3\n        /* \"#utility.yul\":11844:11911   */\n      tag_89\n      jump\t// in\n    tag_227:\n        /* \"#utility.yul\":11838:11842   */\n      dup7\n        /* \"#utility.yul\":11831:11912   */\n      sstore\n        /* \"#utility.yul\":11700:11922   */\n      pop\n        /* \"#utility.yul\":11035:11922   */\n      jump(tag_224)\n        /* \"#utility.yul\":11065:11683   */\n    tag_225:\n        /* \"#utility.yul\":11117:11121   */\n      0x1f\n        /* \"#utility.yul\":11113:11122   */\n      not\n        /* \"#utility.yul\":11105:11111   */\n      dup5\n        /* \"#utility.yul\":11101:11123   */\n      and\n        /* \"#utility.yul\":11151:11188   */\n      tag_228\n        /* \"#utility.yul\":11183:11187   */\n      dup7\n        /* \"#utility.yul\":11151:11188   */\n      tag_75\n      jump\t// in\n    tag_228:\n        /* \"#utility.yul\":11210:11211   */\n      0x00\n        /* \"#utility.yul\":11224:11432   */\n    tag_229:\n        /* \"#utility.yul\":11238:11245   */\n      dup3\n        /* \"#utility.yul\":11235:11236   */\n      dup2\n        /* \"#utility.yul\":11232:11246   */\n      lt\n        /* \"#utility.yul\":11224:11432   */\n      iszero\n      tag_231\n      jumpi\n        /* \"#utility.yul\":11317:11326   */\n      dup5\n        /* \"#utility.yul\":11312:11315   */\n      dup10\n        /* \"#utility.yul\":11308:11327   */\n      add\n        /* \"#utility.yul\":11302:11328   */\n      mload\n        /* \"#utility.yul\":11294:11300   */\n      dup3\n        /* \"#utility.yul\":11287:11329   */\n      sstore\n        /* \"#utility.yul\":11368:11369   */\n      0x01\n        /* \"#utility.yul\":11360:11366   */\n      dup3\n        /* \"#utility.yul\":11356:11370   */\n      add\n        /* \"#utility.yul\":11346:11370   */\n      swap2\n      pop\n        /* \"#utility.yul\":11415:11417   */\n      0x20\n        /* \"#utility.yul\":11404:11413   */\n      dup6\n        /* \"#utility.yul\":11400:11418   */\n      add\n        /* \"#utility.yul\":11387:11418   */\n      swap5\n      pop\n        /* \"#utility.yul\":11261:11265   */\n      0x20\n        /* \"#utility.yul\":11258:11259   */\n      dup2\n        /* \"#utility.yul\":11254:11266   */\n      add\n        /* \"#utility.yul\":11249:11266   */\n      swap1\n      pop\n        /* \"#utility.yul\":11224:11432   */\n      jump(tag_229)\n    tag_231:\n        /* \"#utility.yul\":11460:11466   */\n      dup7\n        /* \"#utility.yul\":11451:11458   */\n      dup4\n        /* \"#utility.yul\":11448:11467   */\n      lt\n        /* \"#utility.yul\":11445:11624   */\n      iszero\n      tag_232\n      jumpi\n        /* \"#utility.yul\":11518:11527   */\n      dup5\n        /* \"#utility.yul\":11513:11516   */\n      dup10\n        /* \"#utility.yul\":11509:11528   */\n      add\n        /* \"#utility.yul\":11503:11529   */\n      mload\n        /* \"#utility.yul\":11561:11609   */\n      tag_233\n        /* \"#utility.yul\":11603:11607   */\n      0x1f\n        /* \"#utility.yul\":11595:11601   */\n      dup10\n        /* \"#utility.yul\":11591:11608   */\n      and\n        /* \"#utility.yul\":11580:11589   */\n      dup3\n        /* \"#utility.yul\":11561:11609   */\n      tag_88\n      jump\t// in\n    tag_233:\n        /* \"#utility.yul\":11553:11559   */\n      dup4\n        /* \"#utility.yul\":11546:11610   */\n      sstore\n        /* \"#utility.yul\":11468:11624   */\n      pop\n        /* \"#utility.yul\":11445:11624   */\n    tag_232:\n        /* \"#utility.yul\":11670:11671   */\n      0x01\n        /* \"#utility.yul\":11666:11667   */\n      0x02\n        /* \"#utility.yul\":11658:11664   */\n      dup9\n        /* \"#utility.yul\":11654:11668   */\n      mul\n        /* \"#utility.yul\":11650:11672   */\n      add\n        /* \"#utility.yul\":11644:11648   */\n      dup9\n        /* \"#utility.yul\":11637:11673   */\n      sstore\n        /* \"#utility.yul\":11072:11683   */\n      pop\n      pop\n      pop\n        /* \"#utility.yul\":11035:11922   */\n    tag_224:\n      pop\n        /* \"#utility.yul\":10625:11928   */\n      pop\n      pop\n      pop\n        /* \"#utility.yul\":10533:11928   */\n      pop\n      pop\n      jump\t// out\n        /* \"#utility.yul\":11934:12082   */\n    tag_90:\n        /* \"#utility.yul\":12036:12047   */\n      0x00\n        /* \"#utility.yul\":12073:12076   */\n      dup2\n        /* \"#utility.yul\":12058:12076   */\n      swap1\n      pop\n        /* \"#utility.yul\":11934:12082   */\n      swap3\n      swap2\n      pop\n      pop\n      jump\t// out\n        /* \"#utility.yul\":12088:12478   */\n    tag_91:\n        /* \"#utility.yul\":12194:12197   */\n      0x00\n        /* \"#utility.yul\":12222:12261   */\n      tag_236\n        /* \"#utility.yul\":12255:12260   */\n      dup3\n        /* \"#utility.yul\":12222:12261   */\n      tag_57\n      jump\t// in\n    tag_236:\n        /* \"#utility.yul\":12277:12366   */\n      tag_237\n        /* \"#utility.yul\":12359:12365   */\n      dup2\n        /* \"#utility.yul\":12354:12357   */\n      dup6\n        /* \"#utility.yul\":12277:12366   */\n      tag_90\n      jump\t// in\n    tag_237:\n        /* \"#utility.yul\":12270:12366   */\n      swap4\n      pop\n        /* \"#utility.yul\":12375:12440   */\n      tag_238\n        /* \"#utility.yul\":12433:12439   */\n      dup2\n        /* \"#utility.yul\":12428:12431   */\n      dup6\n        /* \"#utility.yul\":12421:12425   */\n      0x20\n        /* \"#utility.yul\":12414:12419   */\n      dup7\n        /* \"#utility.yul\":12410:12426   */\n      add\n        /* \"#utility.yul\":12375:12440   */\n      tag_59\n      jump\t// in\n    tag_238:\n        /* \"#utility.yul\":12465:12471   */\n      dup1\n        /* \"#utility.yul\":12460:12463   */\n      dup5\n        /* \"#utility.yul\":12456:12472   */\n      add\n        /* \"#utility.yul\":12449:12472   */\n      swap2\n      pop\n        /* \"#utility.yul\":12198:12478   */\n      pop\n        /* \"#utility.yul\":12088:12478   */\n      swap3\n      swap2\n      pop\n      pop\n      jump\t// out\n        /* \"#utility.yul\":12484:12759   */\n    tag_44:\n        /* \"#utility.yul\":12616:12619   */\n      0x00\n        /* \"#utility.yul\":12638:12733   */\n      tag_240\n        /* \"#utility.yul\":12729:12732   */\n      dup3\n        /* \"#utility.yul\":12720:12726   */\n      dup5\n        /* \"#utility.yul\":12638:12733   */\n      tag_91\n      jump\t// in\n    tag_240:\n        /* \"#utility.yul\":12631:12733   */\n      swap2\n      pop\n        /* \"#utility.yul\":12750:12753   */\n      dup2\n        /* \"#utility.yul\":12743:12753   */\n      swap1\n      pop\n        /* \"#utility.yul\":12484:12759   */\n      swap3\n      swap2\n      pop\n      pop\n      jump\t// out\n        /* \"#utility.yul\":12765:12992   */\n    tag_92:\n        /* \"#utility.yul\":12905:12939   */\n      0x4275205443204b696d6c696b204e6f20696c65207a6174656e206f79206b756c\n        /* \"#utility.yul\":12901:12902   */\n      0x00\n        /* \"#utility.yul\":12893:12899   */\n      dup3\n        /* \"#utility.yul\":12889:12903   */\n      add\n        /* \"#utility.yul\":12882:12940   */\n      mstore\n        /* \"#utility.yul\":12974:12984   */\n      0x6c616e696c646921000000000000000000000000000000000000000000000000\n        /* \"#utility.yul\":12969:12971   */\n      0x20\n        /* \"#utility.yul\":12961:12967   */\n      dup3\n        /* \"#utility.yul\":12957:12972   */\n      add\n        /* \"#utility.yul\":12950:12985   */\n      mstore\n        /* \"#utility.yul\":12765:12992   */\n      pop\n      jump\t// out\n        /* \"#utility.yul\":12998:13364   */\n    tag_93:\n        /* \"#utility.yul\":13140:13143   */\n      0x00\n        /* \"#utility.yul\":13161:13228   */\n      tag_243\n        /* \"#utility.yul\":13225:13227   */\n      0x28\n        /* \"#utility.yul\":13220:13223   */\n      dup4\n        /* \"#utility.yul\":13161:13228   */\n      tag_58\n      jump\t// in\n    tag_243:\n        /* \"#utility.yul\":13154:13228   */\n      swap2\n      pop\n        /* \"#utility.yul\":13237:13330   */\n      tag_244\n        /* \"#utility.yul\":13326:13329   */\n      dup3\n        /* \"#utility.yul\":13237:13330   */\n      tag_92\n      jump\t// in\n    tag_244:\n        /* \"#utility.yul\":13355:13357   */\n      0x40\n        /* \"#utility.yul\":13350:13353   */\n      dup3\n        /* \"#utility.yul\":13346:13358   */\n      add\n        /* \"#utility.yul\":13339:13358   */\n      swap1\n      pop\n        /* \"#utility.yul\":12998:13364   */\n      swap2\n      swap1\n      pop\n      jump\t// out\n        /* \"#utility.yul\":13370:13789   */\n    tag_47:\n        /* \"#utility.yul\":13536:13540   */\n      0x00\n        /* \"#utility.yul\":13574:13576   */\n      0x20\n        /* \"#utility.yul\":13563:13572   */\n      dup3\n        /* \"#utility.yul\":13559:13577   */\n      add\n        /* \"#utility.yul\":13551:13577   */\n      swap1\n      pop\n        /* \"#utility.yul\":13623:13632   */\n      dup2\n        /* \"#utility.yul\":13617:13621   */\n      dup2\n        /* \"#utility.yul\":13613:13633   */\n      sub\n        /* \"#utility.yul\":13609:13610   */\n      0x00\n        /* \"#utility.yul\":13598:13607   */\n      dup4\n        /* \"#utility.yul\":13594:13611   */\n      add\n        /* \"#utility.yul\":13587:13634   */\n      mstore\n        /* \"#utility.yul\":13651:13782   */\n      tag_246\n        /* \"#utility.yul\":13777:13781   */\n      dup2\n        /* \"#utility.yul\":13651:13782   */\n      tag_93\n      jump\t// in\n    tag_246:\n        /* \"#utility.yul\":13643:13782   */\n      swap1\n      pop\n        /* \"#utility.yul\":13370:13789   */\n      swap2\n      swap1\n      pop\n      jump\t// out\n\n    auxdata: 0xa26469706673582212209919e5c4d5ac9cc8dbe693b04b748ac5b1595fbd2fa4a2deac6a9f594401307764736f6c634300081e0033\n}\n",
				"bytecode": {
					"linkReferences": {},
					"object": "6080604052348015600f57600080fd5b50610b3c8061001f6000396000f3fe608060405234801561001057600080fd5b50600436106100575760003560e01c806334fcd1251461005c5780634947de911461008e57806397b5f50c146100aa5780639fb8ab66146100c6578063eba785fb146100f6575b600080fd5b61007660048036038101906100719190610397565b610114565b60405161008593929190610463565b60405180910390f35b6100a860048036038101906100a391906105d6565b6101c6565b005b6100c460048036038101906100bf919061061f565b610240565b005b6100e060048036038101906100db91906105d6565b610311565b6040516100ed9190610696565b60405180910390f35b6100fe610347565b60405161010b91906106b1565b60405180910390f35b600060205280600052604060002060009150905080600001549080600101805461013d906106fb565b80601f0160208091040260200160405190810160405280929190818152602001828054610169906106fb565b80156101b65780601f1061018b576101008083540402835291602001916101b6565b820191906000526020600020905b81548152906001019060200180831161019957829003601f168201915b5050505050908060020154905083565b600260008154809291906101d99061075b565b9190505550604051806060016040528060025481526020018281526020016000815250600080600254815260200190815260200160002060008201518160000155602082015181600101908161022f919061094f565b506040820151816002015590505050565b6001826040516102509190610a5d565b908152602001604051809103902060009054906101000a900460ff16156102ac576040517f08c379a00000000000000000000000000000000000000000000000000000000081526004016102a390610ae6565b60405180910390fd5b600180836040516102bd9190610a5d565b908152602001604051809103902060006101000a81548160ff02191690831515021790555060008082815260200190815260200160002060020160008154809291906103089061075b565b91905055505050565b6001818051602081018201805184825260208301602085012081835280955050505050506000915054906101000a900460ff1681565b60025481565b6000604051905090565b600080fd5b600080fd5b6000819050919050565b61037481610361565b811461037f57600080fd5b50565b6000813590506103918161036b565b92915050565b6000602082840312156103ad576103ac610357565b5b60006103bb84828501610382565b91505092915050565b6103cd81610361565b82525050565b600081519050919050565b600082825260208201905092915050565b60005b8381101561040d5780820151818401526020810190506103f2565b60008484015250505050565b6000601f19601f8301169050919050565b6000610435826103d3565b61043f81856103de565b935061044f8185602086016103ef565b61045881610419565b840191505092915050565b600060608201905061047860008301866103c4565b818103602083015261048a818561042a565b905061049960408301846103c4565b949350505050565b600080fd5b600080fd5b7f4e487b7100000000000000000000000000000000000000000000000000000000600052604160045260246000fd5b6104e382610419565b810181811067ffffffffffffffff82111715610502576105016104ab565b5b80604052505050565b600061051561034d565b905061052182826104da565b919050565b600067ffffffffffffffff821115610541576105406104ab565b5b61054a82610419565b9050602081019050919050565b82818337600083830152505050565b600061057961057484610526565b61050b565b905082815260208101848484011115610595576105946104a6565b5b6105a0848285610557565b509392505050565b600082601f8301126105bd576105bc6104a1565b5b81356105cd848260208601610566565b91505092915050565b6000602082840312156105ec576105eb610357565b5b600082013567ffffffffffffffff81111561060a5761060961035c565b5b610616848285016105a8565b91505092915050565b6000806040838503121561063657610635610357565b5b600083013567ffffffffffffffff8111156106545761065361035c565b5b610660858286016105a8565b925050602061067185828601610382565b9150509250929050565b60008115159050919050565b6106908161067b565b82525050565b60006020820190506106ab6000830184610687565b92915050565b60006020820190506106c660008301846103c4565b92915050565b7f4e487b7100000000000000000000000000000000000000000000000000000000600052602260045260246000fd5b6000600282049050600182168061071357607f821691505b602082108103610726576107256106cc565b5b50919050565b7f4e487b7100000000000000000000000000000000000000000000000000000000600052601160045260246000fd5b600061076682610361565b91507fffffffffffffffffffffffffffffffffffffffffffffffffffffffffffffffff82036107985761079761072c565b5b600182019050919050565b60008190508160005260206000209050919050565b60006020601f8301049050919050565b600082821b905092915050565b6000600883026108057fffffffffffffffffffffffffffffffffffffffffffffffffffffffffffffffff826107c8565b61080f86836107c8565b95508019841693508086168417925050509392505050565b6000819050919050565b600061084c61084761084284610361565b610827565b610361565b9050919050565b6000819050919050565b61086683610831565b61087a61087282610853565b8484546107d5565b825550505050565b600090565b61088f610882565b61089a81848461085d565b505050565b5b818110156108be576108b3600082610887565b6001810190506108a0565b5050565b601f821115610903576108d4816107a3565b6108dd846107b8565b810160208510156108ec578190505b6109006108f8856107b8565b83018261089f565b50505b505050565b600082821c905092915050565b600061092660001984600802610908565b1980831691505092915050565b600061093f8383610915565b9150826002028217905092915050565b610958826103d3565b67ffffffffffffffff811115610971576109706104ab565b5b61097b82546106fb565b6109868282856108c2565b600060209050601f8311600181146109b957600084156109a7578287015190505b6109b18582610933565b865550610a19565b601f1984166109c7866107a3565b60005b828110156109ef578489015182556001820191506020850194506020810190506109ca565b86831015610a0c5784890151610a08601f891682610915565b8355505b6001600288020188555050505b505050505050565b600081905092915050565b6000610a37826103d3565b610a418185610a21565b9350610a518185602086016103ef565b80840191505092915050565b6000610a698284610a2c565b915081905092915050565b7f4275205443204b696d6c696b204e6f20696c65207a6174656e206f79206b756c60008201527f6c616e696c646921000000000000000000000000000000000000000000000000602082015250565b6000610ad06028836103de565b9150610adb82610a74565b604082019050919050565b60006020820190508181036000830152610aff81610ac3565b905091905056fea26469706673582212209919e5c4d5ac9cc8dbe693b04b748ac5b1595fbd2fa4a2deac6a9f594401307764736f6c634300081e0033",
					"opcodes": "PUSH1 0x80 PUSH1 0x40 MSTORE CALLVALUE DUP1 ISZERO PUSH1 0xF JUMPI PUSH1 0x0 DUP1 REVERT JUMPDEST POP PUSH2 0xB3C DUP1 PUSH2 0x1F PUSH1 0x0 CODECOPY PUSH1 0x0 RETURN INVALID PUSH1 0x80 PUSH1 0x40 MSTORE CALLVALUE DUP1 ISZERO PUSH2 0x10 JUMPI PUSH1 0x0 DUP1 REVERT JUMPDEST POP PUSH1 0x4 CALLDATASIZE LT PUSH2 0x57 JUMPI PUSH1 0x0 CALLDATALOAD PUSH1 0xE0 SHR DUP1 PUSH4 0x34FCD125 EQ PUSH2 0x5C JUMPI DUP1 PUSH4 0x4947DE91 EQ PUSH2 0x8E JUMPI DUP1 PUSH4 0x97B5F50C EQ PUSH2 0xAA JUMPI DUP1 PUSH4 0x9FB8AB66 EQ PUSH2 0xC6 JUMPI DUP1 PUSH4 0xEBA785FB EQ PUSH2 0xF6 JUMPI JUMPDEST PUSH1 0x0 DUP1 REVERT JUMPDEST PUSH2 0x76 PUSH1 0x4 DUP1 CALLDATASIZE SUB DUP2 ADD SWAP1 PUSH2 0x71 SWAP2 SWAP1 PUSH2 0x397 JUMP JUMPDEST PUSH2 0x114 JUMP JUMPDEST PUSH1 0x40 MLOAD PUSH2 0x85 SWAP4 SWAP3 SWAP2 SWAP1 PUSH2 0x463 JUMP JUMPDEST PUSH1 0x40 MLOAD DUP1 SWAP2 SUB SWAP1 RETURN JUMPDEST PUSH2 0xA8 PUSH1 0x4 DUP1 CALLDATASIZE SUB DUP2 ADD SWAP1 PUSH2 0xA3 SWAP2 SWAP1 PUSH2 0x5D6 JUMP JUMPDEST PUSH2 0x1C6 JUMP JUMPDEST STOP JUMPDEST PUSH2 0xC4 PUSH1 0x4 DUP1 CALLDATASIZE SUB DUP2 ADD SWAP1 PUSH2 0xBF SWAP2 SWAP1 PUSH2 0x61F JUMP JUMPDEST PUSH2 0x240 JUMP JUMPDEST STOP JUMPDEST PUSH2 0xE0 PUSH1 0x4 DUP1 CALLDATASIZE SUB DUP2 ADD SWAP1 PUSH2 0xDB SWAP2 SWAP1 PUSH2 0x5D6 JUMP JUMPDEST PUSH2 0x311 JUMP JUMPDEST PUSH1 0x40 MLOAD PUSH2 0xED SWAP2 SWAP1 PUSH2 0x696 JUMP JUMPDEST PUSH1 0x40 MLOAD DUP1 SWAP2 SUB SWAP1 RETURN JUMPDEST PUSH2 0xFE PUSH2 0x347 JUMP JUMPDEST PUSH1 0x40 MLOAD PUSH2 0x10B SWAP2 SWAP1 PUSH2 0x6B1 JUMP JUMPDEST PUSH1 0x40 MLOAD DUP1 SWAP2 SUB SWAP1 RETURN JUMPDEST PUSH1 0x0 PUSH1 0x20 MSTORE DUP1 PUSH1 0x0 MSTORE PUSH1 0x40 PUSH1 0x0 KECCAK256 PUSH1 0x0 SWAP2 POP SWAP1 POP DUP1 PUSH1 0x0 ADD SLOAD SWAP1 DUP1 PUSH1 0x1 ADD DUP1 SLOAD PUSH2 0x13D SWAP1 PUSH2 0x6FB JUMP JUMPDEST DUP1 PUSH1 0x1F ADD PUSH1 0x20 DUP1 SWAP2 DIV MUL PUSH1 0x20 ADD PUSH1 0x40 MLOAD SWAP1 DUP2 ADD PUSH1 0x40 MSTORE DUP1 SWAP3 SWAP2 SWAP1 DUP2 DUP2 MSTORE PUSH1 0x20 ADD DUP3 DUP1 SLOAD PUSH2 0x169 SWAP1 PUSH2 0x6FB JUMP JUMPDEST DUP1 ISZERO PUSH2 0x1B6 JUMPI DUP1 PUSH1 0x1F LT PUSH2 0x18B JUMPI PUSH2 0x100 DUP1 DUP4 SLOAD DIV MUL DUP4 MSTORE SWAP2 PUSH1 0x20 ADD SWAP2 PUSH2 0x1B6 JUMP JUMPDEST DUP3 ADD SWAP2 SWAP1 PUSH1 0x0 MSTORE PUSH1 0x20 PUSH1 0x0 KECCAK256 SWAP1 JUMPDEST DUP2 SLOAD DUP2 MSTORE SWAP1 PUSH1 0x1 ADD SWAP1 PUSH1 0x20 ADD DUP1 DUP4 GT PUSH2 0x199 JUMPI DUP3 SWAP1 SUB PUSH1 0x1F AND DUP3 ADD SWAP2 JUMPDEST POP POP POP POP POP SWAP1 DUP1 PUSH1 0x2 ADD SLOAD SWAP1 POP DUP4 JUMP JUMPDEST PUSH1 0x2 PUSH1 0x0 DUP2 SLOAD DUP1 SWAP3 SWAP2 SWAP1 PUSH2 0x1D9 SWAP1 PUSH2 0x75B JUMP JUMPDEST SWAP2 SWAP1 POP SSTORE POP PUSH1 0x40 MLOAD DUP1 PUSH1 0x60 ADD PUSH1 0x40 MSTORE DUP1 PUSH1 0x2 SLOAD DUP2 MSTORE PUSH1 0x20 ADD DUP3 DUP2 MSTORE PUSH1 0x20 ADD PUSH1 0x0 DUP2 MSTORE POP PUSH1 0x0 DUP1 PUSH1 0x2 SLOAD DUP2 MSTORE PUSH1 0x20 ADD SWAP1 DUP2 MSTORE PUSH1 0x20 ADD PUSH1 0x0 KECCAK256 PUSH1 0x0 DUP3 ADD MLOAD DUP2 PUSH1 0x0 ADD SSTORE PUSH1 0x20 DUP3 ADD MLOAD DUP2 PUSH1 0x1 ADD SWAP1 DUP2 PUSH2 0x22F SWAP2 SWAP1 PUSH2 0x94F JUMP JUMPDEST POP PUSH1 0x40 DUP3 ADD MLOAD DUP2 PUSH1 0x2 ADD SSTORE SWAP1 POP POP POP JUMP JUMPDEST PUSH1 0x1 DUP3 PUSH1 0x40 MLOAD PUSH2 0x250 SWAP2 SWAP1 PUSH2 0xA5D JUMP JUMPDEST SWAP1 DUP2 MSTORE PUSH1 0x20 ADD PUSH1 0x40 MLOAD DUP1 SWAP2 SUB SWAP1 KECCAK256 PUSH1 0x0 SWAP1 SLOAD SWAP1 PUSH2 0x100 EXP SWAP1 DIV PUSH1 0xFF AND ISZERO PUSH2 0x2AC JUMPI PUSH1 0x40 MLOAD PUSH32 0x8C379A000000000000000000000000000000000000000000000000000000000 DUP2 MSTORE PUSH1 0x4 ADD PUSH2 0x2A3 SWAP1 PUSH2 0xAE6 JUMP JUMPDEST PUSH1 0x40 MLOAD DUP1 SWAP2 SUB SWAP1 REVERT JUMPDEST PUSH1 0x1 DUP1 DUP4 PUSH1 0x40 MLOAD PUSH2 0x2BD SWAP2 SWAP1 PUSH2 0xA5D JUMP JUMPDEST SWAP1 DUP2 MSTORE PUSH1 0x20 ADD PUSH1 0x40 MLOAD DUP1 SWAP2 SUB SWAP1 KECCAK256 PUSH1 0x0 PUSH2 0x100 EXP DUP2 SLOAD DUP2 PUSH1 0xFF MUL NOT AND SWAP1 DUP4 ISZERO ISZERO MUL OR SWAP1 SSTORE POP PUSH1 0x0 DUP1 DUP3 DUP2 MSTORE PUSH1 0x20 ADD SWAP1 DUP2 MSTORE PUSH1 0x20 ADD PUSH1 0x0 KECCAK256 PUSH1 0x2 ADD PUSH1 0x0 DUP2 SLOAD DUP1 SWAP3 SWAP2 SWAP1 PUSH2 0x308 SWAP1 PUSH2 0x75B JUMP JUMPDEST SWAP2 SWAP1 POP SSTORE POP POP POP JUMP JUMPDEST PUSH1 0x1 DUP2 DUP1 MLOAD PUSH1 0x20 DUP2 ADD DUP3 ADD DUP1 MLOAD DUP5 DUP3 MSTORE PUSH1 0x20 DUP4 ADD PUSH1 0x20 DUP6 ADD KECCAK256 DUP2 DUP4 MSTORE DUP1 SWAP6 POP POP POP POP POP POP PUSH1 0x0 SWAP2 POP SLOAD SWAP1 PUSH2 0x100 EXP SWAP1 DIV PUSH1 0xFF AND DUP2 JUMP JUMPDEST PUSH1 0x2 SLOAD DUP2 JUMP JUMPDEST PUSH1 0x0 PUSH1 0x40 MLOAD SWAP1 POP SWAP1 JUMP JUMPDEST PUSH1 0x0 DUP1 REVERT JUMPDEST PUSH1 0x0 DUP1 REVERT JUMPDEST PUSH1 0x0 DUP2 SWAP1 POP SWAP2 SWAP1 POP JUMP JUMPDEST PUSH2 0x374 DUP2 PUSH2 0x361 JUMP JUMPDEST DUP2 EQ PUSH2 0x37F JUMPI PUSH1 0x0 DUP1 REVERT JUMPDEST POP JUMP JUMPDEST PUSH1 0x0 DUP2 CALLDATALOAD SWAP1 POP PUSH2 0x391 DUP2 PUSH2 0x36B JUMP JUMPDEST SWAP3 SWAP2 POP POP JUMP JUMPDEST PUSH1 0x0 PUSH1 0x20 DUP3 DUP5 SUB SLT ISZERO PUSH2 0x3AD JUMPI PUSH2 0x3AC PUSH2 0x357 JUMP JUMPDEST JUMPDEST PUSH1 0x0 PUSH2 0x3BB DUP5 DUP3 DUP6 ADD PUSH2 0x382 JUMP JUMPDEST SWAP2 POP POP SWAP3 SWAP2 POP POP JUMP JUMPDEST PUSH2 0x3CD DUP2 PUSH2 0x361 JUMP JUMPDEST DUP3 MSTORE POP POP JUMP JUMPDEST PUSH1 0x0 DUP2 MLOAD SWAP1 POP SWAP2 SWAP1 POP JUMP JUMPDEST PUSH1 0x0 DUP3 DUP3 MSTORE PUSH1 0x20 DUP3 ADD SWAP1 POP SWAP3 SWAP2 POP POP JUMP JUMPDEST PUSH1 0x0 JUMPDEST DUP4 DUP2 LT ISZERO PUSH2 0x40D JUMPI DUP1 DUP3 ADD MLOAD DUP2 DUP5 ADD MSTORE PUSH1 0x20 DUP2 ADD SWAP1 POP PUSH2 0x3F2 JUMP JUMPDEST PUSH1 0x0 DUP5 DUP5 ADD MSTORE POP POP POP POP JUMP JUMPDEST PUSH1 0x0 PUSH1 0x1F NOT PUSH1 0x1F DUP4 ADD AND SWAP1 POP SWAP2 SWAP1 POP JUMP JUMPDEST PUSH1 0x0 PUSH2 0x435 DUP3 PUSH2 0x3D3 JUMP JUMPDEST PUSH2 0x43F DUP2 DUP6 PUSH2 0x3DE JUMP JUMPDEST SWAP4 POP PUSH2 0x44F DUP2 DUP6 PUSH1 0x20 DUP7 ADD PUSH2 0x3EF JUMP JUMPDEST PUSH2 0x458 DUP2 PUSH2 0x419 JUMP JUMPDEST DUP5 ADD SWAP2 POP POP SWAP3 SWAP2 POP POP JUMP JUMPDEST PUSH1 0x0 PUSH1 0x60 DUP3 ADD SWAP1 POP PUSH2 0x478 PUSH1 0x0 DUP4 ADD DUP7 PUSH2 0x3C4 JUMP JUMPDEST DUP2 DUP2 SUB PUSH1 0x20 DUP4 ADD MSTORE PUSH2 0x48A DUP2 DUP6 PUSH2 0x42A JUMP JUMPDEST SWAP1 POP PUSH2 0x499 PUSH1 0x40 DUP4 ADD DUP5 PUSH2 0x3C4 JUMP JUMPDEST SWAP5 SWAP4 POP POP POP POP JUMP JUMPDEST PUSH1 0x0 DUP1 REVERT JUMPDEST PUSH1 0x0 DUP1 REVERT JUMPDEST PUSH32 0x4E487B7100000000000000000000000000000000000000000000000000000000 PUSH1 0x0 MSTORE PUSH1 0x41 PUSH1 0x4 MSTORE PUSH1 0x24 PUSH1 0x0 REVERT JUMPDEST PUSH2 0x4E3 DUP3 PUSH2 0x419 JUMP JUMPDEST DUP2 ADD DUP2 DUP2 LT PUSH8 0xFFFFFFFFFFFFFFFF DUP3 GT OR ISZERO PUSH2 0x502 JUMPI PUSH2 0x501 PUSH2 0x4AB JUMP JUMPDEST JUMPDEST DUP1 PUSH1 0x40 MSTORE POP POP POP JUMP JUMPDEST PUSH1 0x0 PUSH2 0x515 PUSH2 0x34D JUMP JUMPDEST SWAP1 POP PUSH2 0x521 DUP3 DUP3 PUSH2 0x4DA JUMP JUMPDEST SWAP2 SWAP1 POP JUMP JUMPDEST PUSH1 0x0 PUSH8 0xFFFFFFFFFFFFFFFF DUP3 GT ISZERO PUSH2 0x541 JUMPI PUSH2 0x540 PUSH2 0x4AB JUMP JUMPDEST JUMPDEST PUSH2 0x54A DUP3 PUSH2 0x419 JUMP JUMPDEST SWAP1 POP PUSH1 0x20 DUP2 ADD SWAP1 POP SWAP2 SWAP1 POP JUMP JUMPDEST DUP3 DUP2 DUP4 CALLDATACOPY PUSH1 0x0 DUP4 DUP4 ADD MSTORE POP POP POP JUMP JUMPDEST PUSH1 0x0 PUSH2 0x579 PUSH2 0x574 DUP5 PUSH2 0x526 JUMP JUMPDEST PUSH2 0x50B JUMP JUMPDEST SWAP1 POP DUP3 DUP2 MSTORE PUSH1 0x20 DUP2 ADD DUP5 DUP5 DUP5 ADD GT ISZERO PUSH2 0x595 JUMPI PUSH2 0x594 PUSH2 0x4A6 JUMP JUMPDEST JUMPDEST PUSH2 0x5A0 DUP5 DUP3 DUP6 PUSH2 0x557 JUMP JUMPDEST POP SWAP4 SWAP3 POP POP POP JUMP JUMPDEST PUSH1 0x0 DUP3 PUSH1 0x1F DUP4 ADD SLT PUSH2 0x5BD JUMPI PUSH2 0x5BC PUSH2 0x4A1 JUMP JUMPDEST JUMPDEST DUP2 CALLDATALOAD PUSH2 0x5CD DUP5 DUP3 PUSH1 0x20 DUP7 ADD PUSH2 0x566 JUMP JUMPDEST SWAP2 POP POP SWAP3 SWAP2 POP POP JUMP JUMPDEST PUSH1 0x0 PUSH1 0x20 DUP3 DUP5 SUB SLT ISZERO PUSH2 0x5EC JUMPI PUSH2 0x5EB PUSH2 0x357 JUMP JUMPDEST JUMPDEST PUSH1 0x0 DUP3 ADD CALLDATALOAD PUSH8 0xFFFFFFFFFFFFFFFF DUP2 GT ISZERO PUSH2 0x60A JUMPI PUSH2 0x609 PUSH2 0x35C JUMP JUMPDEST JUMPDEST PUSH2 0x616 DUP5 DUP3 DUP6 ADD PUSH2 0x5A8 JUMP JUMPDEST SWAP2 POP POP SWAP3 SWAP2 POP POP JUMP JUMPDEST PUSH1 0x0 DUP1 PUSH1 0x40 DUP4 DUP6 SUB SLT ISZERO PUSH2 0x636 JUMPI PUSH2 0x635 PUSH2 0x357 JUMP JUMPDEST JUMPDEST PUSH1 0x0 DUP4 ADD CALLDATALOAD PUSH8 0xFFFFFFFFFFFFFFFF DUP2 GT ISZERO PUSH2 0x654 JUMPI PUSH2 0x653 PUSH2 0x35C JUMP JUMPDEST JUMPDEST PUSH2 0x660 DUP6 DUP3 DUP7 ADD PUSH2 0x5A8 JUMP JUMPDEST SWAP3 POP POP PUSH1 0x20 PUSH2 0x671 DUP6 DUP3 DUP7 ADD PUSH2 0x382 JUMP JUMPDEST SWAP2 POP POP SWAP3 POP SWAP3 SWAP1 POP JUMP JUMPDEST PUSH1 0x0 DUP2 ISZERO ISZERO SWAP1 POP SWAP2 SWAP1 POP JUMP JUMPDEST PUSH2 0x690 DUP2 PUSH2 0x67B JUMP JUMPDEST DUP3 MSTORE POP POP JUMP JUMPDEST PUSH1 0x0 PUSH1 0x20 DUP3 ADD SWAP1 POP PUSH2 0x6AB PUSH1 0x0 DUP4 ADD DUP5 PUSH2 0x687 JUMP JUMPDEST SWAP3 SWAP2 POP POP JUMP JUMPDEST PUSH1 0x0 PUSH1 0x20 DUP3 ADD SWAP1 POP PUSH2 0x6C6 PUSH1 0x0 DUP4 ADD DUP5 PUSH2 0x3C4 JUMP JUMPDEST SWAP3 SWAP2 POP POP JUMP JUMPDEST PUSH32 0x4E487B7100000000000000000000000000000000000000000000000000000000 PUSH1 0x0 MSTORE PUSH1 0x22 PUSH1 0x4 MSTORE PUSH1 0x24 PUSH1 0x0 REVERT JUMPDEST PUSH1 0x0 PUSH1 0x2 DUP3 DIV SWAP1 POP PUSH1 0x1 DUP3 AND DUP1 PUSH2 0x713 JUMPI PUSH1 0x7F DUP3 AND SWAP2 POP JUMPDEST PUSH1 0x20 DUP3 LT DUP2 SUB PUSH2 0x726 JUMPI PUSH2 0x725 PUSH2 0x6CC JUMP JUMPDEST JUMPDEST POP SWAP2 SWAP1 POP JUMP JUMPDEST PUSH32 0x4E487B7100000000000000000000000000000000000000000000000000000000 PUSH1 0x0 MSTORE PUSH1 0x11 PUSH1 0x4 MSTORE PUSH1 0x24 PUSH1 0x0 REVERT JUMPDEST PUSH1 0x0 PUSH2 0x766 DUP3 PUSH2 0x361 JUMP JUMPDEST SWAP2 POP PUSH32 0xFFFFFFFFFFFFFFFFFFFFFFFFFFFFFFFFFFFFFFFFFFFFFFFFFFFFFFFFFFFFFFFF DUP3 SUB PUSH2 0x798 JUMPI PUSH2 0x797 PUSH2 0x72C JUMP JUMPDEST JUMPDEST PUSH1 0x1 DUP3 ADD SWAP1 POP SWAP2 SWAP1 POP JUMP JUMPDEST PUSH1 0x0 DUP2 SWAP1 POP DUP2 PUSH1 0x0 MSTORE PUSH1 0x20 PUSH1 0x0 KECCAK256 SWAP1 POP SWAP2 SWAP1 POP JUMP JUMPDEST PUSH1 0x0 PUSH1 0x20 PUSH1 0x1F DUP4 ADD DIV SWAP1 POP SWAP2 SWAP1 POP JUMP JUMPDEST PUSH1 0x0 DUP3 DUP3 SHL SWAP1 POP SWAP3 SWAP2 POP POP JUMP JUMPDEST PUSH1 0x0 PUSH1 0x8 DUP4 MUL PUSH2 0x805 PUSH32 0xFFFFFFFFFFFFFFFFFFFFFFFFFFFFFFFFFFFFFFFFFFFFFFFFFFFFFFFFFFFFFFFF DUP3 PUSH2 0x7C8 JUMP JUMPDEST PUSH2 0x80F DUP7 DUP4 PUSH2 0x7C8 JUMP JUMPDEST SWAP6 POP DUP1 NOT DUP5 AND SWAP4 POP DUP1 DUP7 AND DUP5 OR SWAP3 POP POP POP SWAP4 SWAP3 POP POP POP JUMP JUMPDEST PUSH1 0x0 DUP2 SWAP1 POP SWAP2 SWAP1 POP JUMP JUMPDEST PUSH1 0x0 PUSH2 0x84C PUSH2 0x847 PUSH2 0x842 DUP5 PUSH2 0x361 JUMP JUMPDEST PUSH2 0x827 JUMP JUMPDEST PUSH2 0x361 JUMP JUMPDEST SWAP1 POP SWAP2 SWAP1 POP JUMP JUMPDEST PUSH1 0x0 DUP2 SWAP1 POP SWAP2 SWAP1 POP JUMP JUMPDEST PUSH2 0x866 DUP4 PUSH2 0x831 JUMP JUMPDEST PUSH2 0x87A PUSH2 0x872 DUP3 PUSH2 0x853 JUMP JUMPDEST DUP5 DUP5 SLOAD PUSH2 0x7D5 JUMP JUMPDEST DUP3 SSTORE POP POP POP POP JUMP JUMPDEST PUSH1 0x0 SWAP1 JUMP JUMPDEST PUSH2 0x88F PUSH2 0x882 JUMP JUMPDEST PUSH2 0x89A DUP2 DUP5 DUP5 PUSH2 0x85D JUMP JUMPDEST POP POP POP JUMP JUMPDEST JUMPDEST DUP2 DUP2 LT ISZERO PUSH2 0x8BE JUMPI PUSH2 0x8B3 PUSH1 0x0 DUP3 PUSH2 0x887 JUMP JUMPDEST PUSH1 0x1 DUP2 ADD SWAP1 POP PUSH2 0x8A0 JUMP JUMPDEST POP POP JUMP JUMPDEST PUSH1 0x1F DUP3 GT ISZERO PUSH2 0x903 JUMPI PUSH2 0x8D4 DUP2 PUSH2 0x7A3 JUMP JUMPDEST PUSH2 0x8DD DUP5 PUSH2 0x7B8 JUMP JUMPDEST DUP2 ADD PUSH1 0x20 DUP6 LT ISZERO PUSH2 0x8EC JUMPI DUP2 SWAP1 POP JUMPDEST PUSH2 0x900 PUSH2 0x8F8 DUP6 PUSH2 0x7B8 JUMP JUMPDEST DUP4 ADD DUP3 PUSH2 0x89F JUMP JUMPDEST POP POP JUMPDEST POP POP POP JUMP JUMPDEST PUSH1 0x0 DUP3 DUP3 SHR SWAP1 POP SWAP3 SWAP2 POP POP JUMP JUMPDEST PUSH1 0x0 PUSH2 0x926 PUSH1 0x0 NOT DUP5 PUSH1 0x8 MUL PUSH2 0x908 JUMP JUMPDEST NOT DUP1 DUP4 AND SWAP2 POP POP SWAP3 SWAP2 POP POP JUMP JUMPDEST PUSH1 0x0 PUSH2 0x93F DUP4 DUP4 PUSH2 0x915 JUMP JUMPDEST SWAP2 POP DUP3 PUSH1 0x2 MUL DUP3 OR SWAP1 POP SWAP3 SWAP2 POP POP JUMP JUMPDEST PUSH2 0x958 DUP3 PUSH2 0x3D3 JUMP JUMPDEST PUSH8 0xFFFFFFFFFFFFFFFF DUP2 GT ISZERO PUSH2 0x971 JUMPI PUSH2 0x970 PUSH2 0x4AB JUMP JUMPDEST JUMPDEST PUSH2 0x97B DUP3 SLOAD PUSH2 0x6FB JUMP JUMPDEST PUSH2 0x986 DUP3 DUP3 DUP6 PUSH2 0x8C2 JUMP JUMPDEST PUSH1 0x0 PUSH1 0x20 SWAP1 POP PUSH1 0x1F DUP4 GT PUSH1 0x1 DUP2 EQ PUSH2 0x9B9 JUMPI PUSH1 0x0 DUP5 ISZERO PUSH2 0x9A7 JUMPI DUP3 DUP8 ADD MLOAD SWAP1 POP JUMPDEST PUSH2 0x9B1 DUP6 DUP3 PUSH2 0x933 JUMP JUMPDEST DUP7 SSTORE POP PUSH2 0xA19 JUMP JUMPDEST PUSH1 0x1F NOT DUP5 AND PUSH2 0x9C7 DUP7 PUSH2 0x7A3 JUMP JUMPDEST PUSH1 0x0 JUMPDEST DUP3 DUP2 LT ISZERO PUSH2 0x9EF JUMPI DUP5 DUP10 ADD MLOAD DUP3 SSTORE PUSH1 0x1 DUP3 ADD SWAP2 POP PUSH1 0x20 DUP6 ADD SWAP5 POP PUSH1 0x20 DUP2 ADD SWAP1 POP PUSH2 0x9CA JUMP JUMPDEST DUP7 DUP4 LT ISZERO PUSH2 0xA0C JUMPI DUP5 DUP10 ADD MLOAD PUSH2 0xA08 PUSH1 0x1F DUP10 AND DUP3 PUSH2 0x915 JUMP JUMPDEST DUP4 SSTORE POP JUMPDEST PUSH1 0x1 PUSH1 0x2 DUP9 MUL ADD DUP9 SSTORE POP POP POP JUMPDEST POP POP POP POP POP POP JUMP JUMPDEST PUSH1 0x0 DUP2 SWAP1 POP SWAP3 SWAP2 POP POP JUMP JUMPDEST PUSH1 0x0 PUSH2 0xA37 DUP3 PUSH2 0x3D3 JUMP JUMPDEST PUSH2 0xA41 DUP2 DUP6 PUSH2 0xA21 JUMP JUMPDEST SWAP4 POP PUSH2 0xA51 DUP2 DUP6 PUSH1 0x20 DUP7 ADD PUSH2 0x3EF JUMP JUMPDEST DUP1 DUP5 ADD SWAP2 POP POP SWAP3 SWAP2 POP POP JUMP JUMPDEST PUSH1 0x0 PUSH2 0xA69 DUP3 DUP5 PUSH2 0xA2C JUMP JUMPDEST SWAP2 POP DUP2 SWAP1 POP SWAP3 SWAP2 POP POP JUMP JUMPDEST PUSH32 0x4275205443204B696D6C696B204E6F20696C65207A6174656E206F79206B756C PUSH1 0x0 DUP3 ADD MSTORE PUSH32 0x6C616E696C646921000000000000000000000000000000000000000000000000 PUSH1 0x20 DUP3 ADD MSTORE POP JUMP JUMPDEST PUSH1 0x0 PUSH2 0xAD0 PUSH1 0x28 DUP4 PUSH2 0x3DE JUMP JUMPDEST SWAP2 POP PUSH2 0xADB DUP3 PUSH2 0xA74 JUMP JUMPDEST PUSH1 0x40 DUP3 ADD SWAP1 POP SWAP2 SWAP1 POP JUMP JUMPDEST PUSH1 0x0 PUSH1 0x20 DUP3 ADD SWAP1 POP DUP2 DUP2 SUB PUSH1 0x0 DUP4 ADD MSTORE PUSH2 0xAFF DUP2 PUSH2 0xAC3 JUMP JUMPDEST SWAP1 POP SWAP2 SWAP1 POP JUMP INVALID LOG2 PUSH5 0x6970667358 0x22 SLT KECCAK256 SWAP10 NOT JUMPF 0xC4D5 0xAC SWAP13 0xC8 0xDB DUPN 0x93 0xB0 0x4B PUSH21 0x8AC5B1595FBD2FA4A2DEAC6A9F594401307764736F PUSH13 0x634300081E0033000000000000 "
				},
				"gasEstimates": {
					"creation": {
						"codeDepositCost": "575200",
						"executionCost": "606",
						"totalCost": "575806"
					},
					"external": {
						"adayEkle(string)": "infinite",
						"adaySayisi()": "2495",
						"adaylar(uint256)": "infinite",
						"oyKullandiMi(string)": "infinite",
						"oyVer(string,uint256)": "infinite"
					}
				},
				"methodIdentifiers": {
					"adayEkle(string)": "4947de91",
					"adaySayisi()": "eba785fb",
					"adaylar(uint256)": "34fcd125",
					"oyKullandiMi(string)": "9fb8ab66",
					"oyVer(string,uint256)": "97b5f50c"
				}
			},
			"storageLayout": {
				"storage": [
					{
						"astId": 13,
						"contract": "Secim.sol:SecimSistemi",
						"label": "adaylar",
						"offset": 0,
						"slot": "0",
						"type": "t_mapping(t_uint256,t_struct(Aday)8_storage)"
					},
					{
						"astId": 17,
						"contract": "Secim.sol:SecimSistemi",
						"label": "oyKullandiMi",
						"offset": 0,
						"slot": "1",
						"type": "t_mapping(t_string_memory_ptr,t_bool)"
					},
					{
						"astId": 19,
						"contract": "Secim.sol:SecimSistemi",
						"label": "adaySayisi",
						"offset": 0,
						"slot": "2",
						"type": "t_uint256"
					}
				],
				"types": {
					"t_bool": {
						"encoding": "inplace",
						"label": "bool",
						"numberOfBytes": "1"
					},
					"t_mapping(t_string_memory_ptr,t_bool)": {
						"encoding": "mapping",
						"key": "t_string_memory_ptr",
						"label": "mapping(string => bool)",
						"numberOfBytes": "32",
						"value": "t_bool"
					},
					"t_mapping(t_uint256,t_struct(Aday)8_storage)": {
						"encoding": "mapping",
						"key": "t_uint256",
						"label": "mapping(uint256 => struct SecimSistemi.Aday)",
						"numberOfBytes": "32",
						"value": "t_struct(Aday)8_storage"
					},
					"t_string_memory_ptr": {
						"encoding": "bytes",
						"label": "string",
						"numberOfBytes": "32"
					},
					"t_string_storage": {
						"encoding": "bytes",
						"label": "string",
						"numberOfBytes": "32"
					},
					"t_struct(Aday)8_storage": {
						"encoding": "inplace",
						"label": "struct SecimSistemi.Aday",
						"members": [
							{
								"astId": 3,
								"contract": "Secim.sol:SecimSistemi",
								"label": "id",
								"offset": 0,
								"slot": "0",
								"type": "t_uint256"
							},
							{
								"astId": 5,
								"contract": "Secim.sol:SecimSistemi",
								"label": "isim",
								"offset": 0,
								"slot": "1",
								"type": "t_string_storage"
							},
							{
								"astId": 7,
								"contract": "Secim.sol:SecimSistemi",
								"label": "oySayisi",
								"offset": 0,
								"slot": "2",
								"type": "t_uint256"
							}
						],
						"numberOfBytes": "96"
					},
					"t_uint256": {
						"encoding": "inplace",
						"label": "uint256",
						"numberOfBytes": "32"
					}
				}
			},
			"userdoc": {
				"kind": "user",
				"methods": {},
				"version": 1
			}
		}
	}
}